:020000040800F2
:1000000000000520F9000008210100082101000876
:100010002101000821010008210100080000000062
:1000200000000000000000000000000021010008A6
:10003000210100080000000021010008250300083C
:100040002101000810B5054C237833B9044B13B1D6
:100050000448AFF300800123237010BDDC020020B0
:10006000000000004853020808B5034B1BB10349C8
:100070000348AFF3008008BD00000000E00200204C
:1000800048530208154B002B08BF134B9D46A3F5A0
:10009000803A00218B460F461348144A121A1AF070
:1000A00002FC0F4B002B00D098470E4B002B00D0CA
:1000B00098470020002104000D000D48002802D0C0
:1000C0000C48AFF300801AF0C5F92000290000F0B9
:1000D000F9FB19F029FE00BF000008000000052010
:1000E0000000000000000000DC0200205019002089
:1000F00000000000000000000649074A074B9A4232
:10010000BEBF51F8040B42F8040BF8E700F00AF800
:10011000FFF7B8FF5453020800000020DC02002063
:10012000FEE700BF80B400AF084BD3F88830074A21
:1001300043F47003C2F88830BFF34F8FBFF36F8F63
:1001400000BFBD465DF8047B704700BF00ED00E0D6
:1001500080B485B000AF78607B6803F00703FB6074
:100160000C4BDB68BB60BA684FF6FF031340BB6003
:10017000FB681A02BB68134343F0BF6343F40033C8
:10018000BB60044ABB68D36000BF1437BD465DF84E
:10019000047B704700ED00E080B483B000AF0346FD
:1001A0003960FB7197F90730002B0CDA3B68DAB243
:1001B0000E4997F9073003F00F03043B1201D2B246
:1001C0000B441A760BE03B68DBB2094A97F907103B
:1001D00008461B01D9B213180A4683F8002300BF52
:1001E0000C37BD465DF8047B704700BF00ED00E0B2
:1001F00000E100E080B582B000AF78607B68013B31
:10020000B3F1807F01D301230FE00A4A7B68013BF1
:1002100053600F214FF0FF30FFF7BEFF054B002268
:100220009A60044B07221A60002318460837BD461F
:1002300080BD00BF10E000E080B483B000AF786004
:10024000044A7B681A607B6818460C37BD465DF827
:10025000047B7047E016020880B582B000AF78607A
:100260007868FFF7E9FF0421786800F0A1FB7B685C
:1002700018460837BD4680BD80B582B000AF7860B3
:10028000054A7B681A607B681846FFF7D5FF7B68D4
:1002900018460837BD4680BD0C17020880B582B0ED
:1002A00000AF78607868FFF7E7FF0821786800F012
:1002B0007FFB7B6818460837BD4680BD80B500AF20
:1002C0000320FFF745FF4FF47A50FFF793FF00BF7D
:1002D00080BD000080B584B000AFF860B9607A607E
:1002E0007B681A46B968044800F0BAFA0346184613
:1002F0001037BD4680BD00BFF802002080B584B035
:1003000000AFF860B9607A607B681A46B968044843
:1003100000F07EFA034618461037BD4680BD00BF88
:10032000F802002080B400AF00BFBD465DF8047B3A
:100330007047000080B582B000AF786039607B689C
:10034000012B0FD13B684FF6FF7293420AD14FF455
:10035000E1320121054800F097F9054A05490348B3
:1003600000F021FB00BF0837BD4680BDF802002029
:10037000000000207902000880B500AF4FF6FF7141
:100380000120FFF7D7FF80BD80B483B000AF786055
:100390007B68404A93424DD03E4A934213D83E4A2E
:1003A000934232D03C4A934206D83C4A93421ED0F4
:1003B0003B4A934222D067E03A4A93422CD03A4AD1
:1003C000934230D060E0394A934248D0374A934252
:1003D00006D8374A934234D0364A934238D053E055
:1003E000354A934242D0354A934246D04CE0344B92
:1003F0001B6B334A43F00103136345E0304B1B6B27
:100400002F4A43F0020313633EE02D4B1B6B2C4A33
:1004100043F00403136337E0294B1B6B284A43F076
:100420000803136330E0264B1B6B254A43F010038F
:10043000136329E0224B1B6B214A43F02003136313
:1004400022E01F4B1B6B1E4A43F0400313631BE06B
:100450001B4B1B6B1A4A43F08003136314E0184BC9
:100460001B6B174A43F4807313630DE0144B1B6B33
:10047000134A43F40073136306E0114B1B6B104ADD
:1004800043F48063136300BF00BF0C37BD465DF8C3
:10049000047B704700140240000802400000024044
:1004A00000040240000C0240001002400020024004
:1004B00000180240001C02400024024000280240B4
:1004C0000038024080B584B000AF7860084611461D
:1004D0001A460346FB700B46BB7013467B70786868
:1004E000FFF752FF7B68FB60FB681B68FA785200DD
:1004F000032101FA02F2D2431A40FB681A60FB683A
:100500001B687978FA78520001FA02F21A43FB6804
:100510001A60FB685B68FA78114601228A40D24370
:100520001A40FB685A60FB685B683A7EF9788A403B
:100530001A43FB685A60FB689B68FA7852000321F3
:1005400001FA02F2D2431A40FB689A60FB689B688A
:10055000397FFA78520001FA02F21A43FB689A6076
:10056000FB68DB68FA785200032101FA02F2D243F9
:100570001A40FB68DA60FB68DB6897F82010FA78AD
:10058000520001FA02F21A43FB68DA60FB78072B8B
:100590008CBF01230023DBB21A46FB68083253F8F4
:1005A0002230FA781146FA78072A01D8002200E0B2
:1005B00008228A1A92000F2101FA02F2D243114650
:1005C000FA78072A8CBF01220022D2B21940FB68B8
:1005D000083243F82210FB78072B8CBF012300233D
:1005E000DBB21A46FB68083253F82230B978FA7841
:1005F0001046FA78072A01D8002200E00822821A61
:10060000920001FA02F21146FA78072A8CBF012201
:100610000022D2B21943FB68083243F8221000BF0F
:100620001037BD4680BD80B485B000AF78600B4602
:10063000FB701346BB707B68FB60BB78002B05D05A
:10064000FB78012202FA03F31A4605E0FB78012247
:1006500002FA03F31B041A46FB689A6100BF1437C1
:10066000BD465DF8047B704780B483B000AF78600E
:10067000044A7B681A607B6818460C37BD465DF8F3
:10068000047B7047E016020880B588B004AFF860BC
:100690000B467A60FB72FB681846FFF7E5FF2F4AAE
:1006A000FB681A60FB7A022B25D0032B2CD0012B80
:1006B00000D04DE02A4B5B6C294A43F01003536491
:1006C000BFF34F8F00230293032301930023009372
:1006D0000223072209212348FFF7F4FE0023029397
:1006E00003230193002300930223072207211E48BE
:1006F000FFF7E8FE11E01A4B1B6C194A43F4003374
:100700001364BFF34F8F08E0154B1B6C144A43F47E
:1007100080231364BFF34F8F00BFFB68FA7A1A710E
:100720007B685B0803F5740303F51053FA681279CC
:1007300011460E4A52F821207968B3FBF1F3D360D9
:10074000FB681B791A46094B53F822300D221A60B8
:10075000FB6818461037BD4680BD00BF0C17020865
:10076000003802400000024000040240F81602086F
:1007700080B483B000AF78607B681B791A460E4B5B
:1007800053F82230DB6903F02003002B0CBF012358
:100790000023DBB2002B00D0EEE77B681B791A4602
:1007A000054B53F822305B6ADBB218460C37BD4666
:1007B0005DF8047B704700BFF816020890B583B05F
:1007C00000AF78600B46FB707B681B791A460F4BB5
:1007D00053F82230DB6903F08003002B0CBF0123A8
:1007E0000023DBB2002B00D0EEE77B681B791A46B2
:1007F000064B53F82240FB78184600F057F80346A2
:10080000A36200BF0C37BD4690BD00BFF8160208BA
:1008100080B586B000AFF860B9607A6000237B6174
:100820007B685A1E7A60002B14BF01230023DBB2C1
:10083000002B10D0FB681B6808331B68F8689847CA
:1008400003461946BB685A1CBA600A461A707B698F
:1008500001337B61E4E77B6918461837BD4680BDEC
:1008600080B586B000AFF860B9607A6000237B6124
:100870007B685A1E7A60002B14BF01230023DBB271
:10088000002B0ED0FB681B680C331A68BB68591C20
:10089000B9601B781946F86890477B6901337B6122
:1008A000E6E77B6918461837BD4680BD80B483B043
:1008B00000AF0346FB71FB7918460C37BD465DF867
:1008C000047B704780B584B004AFFFF7F7FC124992
:1008D000124806F084FF03461149184606F01CFE34
:1008E000002302930323019300230093012300229A
:1008F00001210C48FFF7E6FD012201210948FFF71D
:1009000092FE0949054806F06AFF03460449184665
:1009100006F002FEFEE700BF241702089C05002037
:10092000FD750008002002403C17020880B582B027
:1009300000AF786039607B68012B0CD13B684FF6C3
:10094000FF72934207D1064800F034F8054A064981
:10095000034800F028F800BF0837BD4680BD00BF3F
:100960000003002000000020CD0A000880B500AF81
:100970004FF6FF710120FFF7D9FF80BD08B500F0E9
:100980000DF808B5804719F06FF90000024B1868A0
:10099000BFF35B8F704700BF0800002008B5FFF76A
:1009A000F5FFFFF7EEFF0B460146184619F0A8B910
:1009B0000DF0A9B92DE9F843334D2B685A1C0746B1
:1009C0002A60002B5CD1314C314B3248DFF8F0808B
:1009D000DFF8F090304E01221A702368996806F013
:1009E000EDFC23682D48596806F0E8FC23682C4884
:1009F000D96806F0E3FC2749404606F05BFD27492D
:100A0000484607F07FFB2649304606F053FD24494F
:100A1000244806F04FFD3369C6F8748043F4005350
:100A20003361236820489968C9F8788006F0D6FCBD
:100A300023681E4859681E4EDFF88C8006F0CEFCF5
:100A400023681C48D9681C4C06F0C8FC164930467F
:100A500006F000FE1549404607F09EFB154920466A
:100A600006F0F8FD1349154806F0F4FD2369C8F8AF
:100A7000786043F4005323612B68666701332B6071
:100A80003846BDE8F88300BFF40800208800002045
:100A900004000020540300208404002004030020EC
:100AA0002C03002010050020CC0300207C03002034
:100AB000DC070020A4030020BC0600204C07002017
:100AC0009C050020F4030020280600200D4A13682E
:100AD000591E022B10B50446116011D10A4806F0C8
:100AE0001CFD0A4806F019FD094806F016FD0948E4
:100AF00006F0E2FD084806F0DFFD084806F0DCFDE0
:100B0000204610BDF40800209C050020840400202D
:100B100010050020DC070020BC0600204C07002048
:100B200010B5034B0360044607F0DCFB204610BD04
:100B30006017020810B5034B0360044607F0D2FBB0
:100B4000204610BD7017020810B50446FFF7E8FFF5
:100B500020460DF0D8F8204610BD10B50446FFF72A
:100B6000E9FF20460DF0CFF8204610BD08B5836F91
:100B70003BB14161D0E904231A4205D0034807F094
:100B80006DFB41F00101F4E708BD00BF78170208D2
:100B900008B543691943FFF7E9FF08BD70B5C46F95
:100BA0000D460CB907F033FB237F4BB9204607F005
:100BB00012FA2368294620469B69BDE87040184711
:100BC0000C44607F70BD90F8753010B504463BB999
:100BD0002021FFF7E3FF012384F8740084F87530C7
:100BE00094F8740010BD000010B5044607F03AFBFD
:100BF000064B23600023236784F8743084F8753033
:100C0000C4E91E33C4E92033204610BD6017020832
:100C100038B5044608460D4608F04AFC10B128468F
:100C200008F070F9E067284608F060FC10B128462B
:100C300008F044FAC4F88000284608F075FC10B1AA
:100C4000284608F059FAC4F8840038BD38B504467F
:100C50000D460EF0A6FA04F16C012046FFF7D8FF0E
:100C6000A567B5FA85F500236D0984F8743084F81A
:100C7000753023672361656138BD000008B5C36F17
:100C80003BB14161D0E904231A4205D0034807F083
:100C9000E5FA41F00101F4E708BD00BF781702084A
:100CA00008B543691943FFF7E9FF08BD10B50446CD
:100CB00007F0D8FA064B23600023C4E91C3384F8FC
:100CC0007830C4E91F33C4E92133204610BD00BF8A
:100CD0007017020838B5044608460D4601F0A2F820
:100CE00010B1284600F0CCFFC4F88000284601F07F
:100CF000B7F810B1284600F0FFFFC4F8840028467A
:100D000001F0CCF810B1284601F014F8C4F88800BE
:100D100038BD38B504460D460EF043FA04F16C01B7
:100D20002046FFF7D7FFE567B5FA85F500236D0983
:100D3000636784F8783023672361656138BD704745
:100D4000704730B500224FF0FF344FF0FF35C0E957
:100D50000045C0E9022230BD82B08DE80C004FF0A2
:100D6000FF334FF0FF32C0E900230023C0E9023314
:100D700002B0704700207047002070474FF0FF30EE
:100D80007047036810B55B6A04469847431C1EBF52
:100D9000A36813F8010BA36010BD4FF0FF3070473C
:100DA0004FF0FF3070477047704730B500224FF06A
:100DB000FF344FF0FF35C0E90045C0E9022230BDE5
:100DC00082B08DE80C004FF0FF334FF0FF32C0E9E6
:100DD00000230023C0E9023302B0704700207047AF
:100DE000002070474FF0FF307047036810B55B6A12
:100DF00004469847431C1EBFA36853F8040BA36026
:100E000010BD4FF0FF3070474FF0FF3070470000CB
:100E100010B5044B044640F81C3B0EF00DFB204679
:100E200010BD00BFF017020810B5044B044640F88F
:100E30001C3B0EF001FB204610BD00BF301802081D
:100E400010B50446FFF7E4FF20460CF05CFF204697
:100E500010BD10B50446FFF7E7FF20460CF053FF26
:100E6000204610BD2DE9F04106460D46904600246F
:100E700044451DDAD6E905073B1A0FD0A8EB040755
:100E80009F42A8BF1F463A46294619F0E8FC7369FD
:100E90003C443D44A0451F447761E9DD336829782F
:100EA0005B6B30469847013002D001340135DFE7F3
:100EB0002046BDE8F0812DE9F04107460E469046F8
:100EC0000025454521DAD7E90504844213D0241AC8
:100ED000A410A8EB05039C42A8BF1C461CB12246E7
:100EE00031461CF058FE7B692544A4002644A845E1
:100EF0001C447C61E5DD3B6831685B6B3846984794
:100F0000013002D001350436DBE72846BDE8F08128
:100F10002DE9F04106460D469046002444451DDA71
:100F2000D6E902177B1A0FD0A8EB04079F42A8BF8F
:100F30001F463A46284619F092FCB3683C443D44AB
:100F4000A0451F44B760E9DD336830469B6A984787
:100F5000431C03D0287001340135DFE72046BDE88B
:100F6000F0812DE9F04107460E46904600254545A3
:100F700021DAD7E902148C4213D0641AA410A8EB2A
:100F800005039C42A8BF1C461CB1224630461CF0FB
:100F900002FEBB682544A4002644A8451C44BC604E
:100FA000E5DD3B6838469B6A9847431C03D03060B8
:100FB00001350436DBE72846BDE8F08103689B690C
:100FC0001847D0E902318B42024602D303689B6A7C
:100FD000184713F8010B93607047D0E902218A4249
:100FE00002D303685B6A18471078704730B4D0E9C1
:100FF0000525954203D8036830BC5B6B1847117018
:1010000042690132426130BC0846704703681B6B7D
:101010001847000010B5074B036000230446C0E9E1
:101020000133C0E90333C0E905331C300DF08AFDFC
:10103000204610BDF017020803689B691847D0E9E5
:1010400002318B42024602D303689B6A184753F869
:10105000040B93607047D0E902218A4202D30368EF
:101060005B6A18471068704703681B6B18470000DD
:1010700010B5074B036000230446C0E90133C0E903
:101080000333C0E905331C300DF05CFD204610BD74
:1010900030180208836858697047836898697047F8
:1010A0008368586B704783689B6B0020DAB262F3E9
:1010B0000700C3F3072262F30F20C3F3074262F372
:1010C00017401B0E82B063F31F6002B07047836845
:1010D000DB6B0020DAB262F30700C3F3072262F38E
:1010E0000F20C3F3074262F317401B0E82B063F375
:1010F0001F6002B0704783685869704783689869B9
:1011000070478368586B704783689B6B0020DAB226
:1011100062F30700C3F3072262F30F20C3F3074211
:1011200062F317401B0E82B063F31F6002B070477A
:101130008368DB6B0020DAB262F30700C3F3072297
:1011400062F30F20C3F3074262F317401B0E82B015
:1011500063F31F6002B070478368586A7047836802
:10116000986A704700207047002070477047002041
:10117000914204D251F8043B03EB7060F8E77047EA
:1011800010B50D4B036090F86C3004467BB180685D
:1011900008B10CF01EFEE06908B10CF01AFE606A9E
:1011A00008B10CF016FEE06A08B10CF012FE204601
:1011B0000EF0D4F8204610BD781B020810B50D4B78
:1011C000036090F86C3004467BB1806808B10CF085
:1011D00000FEE06908B10CF0FCFD606A08B10CF09B
:1011E000F8FDE06A08B10CF0F4FD20460EF0B6F808
:1011F000204610BD881B020810B5034B036004464F
:101200000EF0ACF8204610BD0C1B020810B5034BC5
:10121000036004460EF0A2F8204610BD241B02080D
:101220000B4B10B5036090F8243104465BB1806825
:1012300008B10CF0CEFD606908B10CF0CAFDE069A0
:1012400008B10CF0C6FD20460EF088F8204610BD0F
:10125000981B020810B5034B036004460EF07EF89D
:10126000204610BDD019020810B5034B0360044698
:101270000EF074F8204610BD0C1A020810B5034B8E
:10128000036004460EF06AF8204610BD3C1A0208BE
:1012900010B5034B036004460EF060F8204610BD05
:1012A0003C1B020810B5034B036004460EF056F8D1
:1012B000204610BD501B020810B50446FFF760FF22
:1012C00020460CF020FD204610BD10B50446FFF767
:1012D00075FF20460CF017FD204610BD10B50446E2
:1012E000FFF78AFF20460CF00EFD204610BD10B51A
:1012F0000446FFF78BFF20460CF005FD204610BD8D
:1013000010B50446FFF78CFF20460CF0FCFC20468D
:1013100010BD10B50446FFF79DFF20460CF0F3FC0E
:10132000204610BD10B50446FFF79EFF20460CF086
:10133000EAFC204610BD10B50446FFF79FFF20468B
:101340000CF0E1FC204610BD10B50446FFF7A0FFED
:1013500020460CF0D8FC204610BD10B50446FFF71F
:10136000A1FF20460CF0CFFC204610BD13B58B68C2
:1013700001AA9968044605F0B3FE204602B010BDEC
:1013800013B58B6801AA9968044605F0A9FE2046AA
:1013900002B010BD13B58B6801AA9968044605F028
:1013A0009FFE204602B010BD13B58B6801AAD96913
:1013B000044606F093FD204602B010BD13B58B68BD
:1013C00001AA596A044606F089FD204602B010BD04
:1013D00013B58B6801AAD96A044606F07FFD204642
:1013E00002B010BD13B58B6801AAD969044606F096
:1013F00075FD204602B010BD13B58B6801AA596A6D
:10140000044606F06BFD204602B010BD13B58B6894
:1014100001AAD96A044606F061FD204602B010BD5B
:1014200013B58B6801AA5969044606F057FD20469A
:1014300002B010BD13B58B6801AAD969044606F045
:101440004DFD204602B010BD10B5054B044640F8D6
:10145000083B0EF083FC20460DF080FF204610BDB7
:10146000C41A020810B50446FFF7EEFF20460CF040
:101470004AFC204610BD000010B5054B044640F85C
:10148000083B0EF06BFC20460DF068FF204610BDB7
:101490005019020810B50446FFF7EEFF20460CF085
:1014A00032FC204610BD000038B50D4B03600569C5
:1014B00004460DF077FF854203D015B128460CF0A5
:1014C00088FCA06810B103685B68984704F10C00C1
:1014D0000EF044FC20460DF041FF204638BD00BF11
:1014E0004C1A020810B50446FFF7DEFF20460CF048
:1014F0000AFC204610BD2DE9F04385B01C4681460C
:1015000003AB02A806F000FD01AB21460C9A03A82C
:1015100006F0FAFC029D039C55F80C3C54F80C7C38
:1015200005EB830804EB87072246294648460DF061
:10153000DEFC064678B928461CF0A2F905EB8005CA
:1015400020461CF09DF9A84504EB80040DD13E1BFC
:1015500018BF4FF0FF3603A806F054FA02A806F0B1
:1015600051FA304605B0BDE8F083A74202D00435F9
:101570000434D9E70126EEE72DE9F34715461C466A
:10158000284B036022466B460746894601A8294638
:1015900006F0BAFC019EDFF890A056F80C3C641BE4
:1015A00006EB8308204B64109C4294BFA0004FF0D0
:1015B000FF300CF04AFE054623463246294648468F
:1015C0000DF0A0FC844211D8441C28460CF001FC0C
:1015D000544594BFA0004FF0FF300CF036FE234678
:1015E00005460146324648460DF08CFC0246294627
:1015F000384606F08FFB30461CF042F906EB8006B9
:10160000B04505D000213846043606F00CFCD3E77F
:1016100028460CF0DEFB01A806F0F4F9384602B0CB
:10162000BDE8F087E8080020FEFFFF1F0A2807D862
:101630002F2917D93030814214D2A1F130007047E0
:10164000A1F1300009280FD9A1F16103052B02D8BF
:10165000A1F157007047A1F14103052B02D8A1F178
:10166000370070474FF0FF307047000008B42DE995
:10167000F7410F4604200021904618F0C9FF164993
:10168000054619F086FB28B328461AF005F9461CD2
:1016900030460CF0DAFD29463246044619F0DFF8F0
:1016A0000D49042018F0B4FF0AAB099A0193414692
:1016B00038461BF0BBFA054634B12146042018F029
:1016C000A7FF20460CF085FB284603B0BDE8F0419B
:1016D00001B070470446E7E7BE1B020813460A46FE
:1016E00011B119681CF048BA084670470AB11CF0DD
:1016F00052BA704713460A4611B119461CF051BA46
:101700007047000000310B4A026018BF012100221F
:101710004160C0E902220274C0E90522C0E9072243
:10172000C0E90922C0E90B22C0E90D22C26380F89A
:101730006C207047781B020800310B4A026018BF0A
:10174000012100224160C0E902220274C0E90522A1
:10175000C0E90722C0E90922C0E90B22C0E90D2235
:10176000C26380F86C207047881B020810B50032F5
:1017700018BF01224260054B0360002204468160CD
:1017800011460DF01FFB204610BD00BF901A020845
:1017900003689B6818470368DB68184710B50B6837
:1017A00004461B699847204610BD10B50B680446D7
:1017B0005B699847204610BD10B50B6804469B69CD
:1017C0009847204610BD10B50B680446DB69984762
:1017D000204610BD03681B6A184703685B6A82B025
:1017E00002B0184703689B6A82B002B01847000035
:1017F00010B5003218BF01224260054B0360002281
:101800000446816011460DF08BFA204610BD00BFE2
:101810005C1A020803689B6818470368DB6818476E
:1018200010B50B6804461B699847204610BD10B5DB
:101830000B6804465B699847204610BD10B50B68DD
:1018400004469B699847204610BD10B50B680446B6
:10185000DB699847204610BD03681B6A1847036878
:101860005B6A82B002B0184703689B6A82B002B01C
:101870001847F0B589B006AC84E80C00139A0B68E1
:101880000592129A0492119A03929DF840200292B6
:101890000EAA05460E4692E803008DE8030028468E
:1018A0009F68314694E80C00B847284609B0F0BD5F
:1018B000F0B589B006AC84E80C00139A0B68059269
:1018C000129A0492119A03929DF8402002920EAA55
:1018D00005460E4692E803008DE803002846DF68BF
:1018E000314694E80C00B847284609B0F0BD70B501
:1018F00086B004AC84E80C000C9A02920B9A019218
:101900000B689DF8282000929E6894E80C0005461C
:10191000B047284606B070BD70B586B004AC84E808
:101920000C000D9A03920C9A02920B9A01920B688A
:101930009DF828200092DE6894E80C000546B04728
:10194000284606B070BD00000031094A026018BF89
:10195000012100224160C0E902220274C0E905228F
:10196000C0E90722C0E9092280F82421704700BF9E
:10197000981B020810B5003218BF0122044B4260C8
:1019800004460360816000210DF030FB204610BD4D
:10199000AC19020803689B6818470368DB6818479E
:1019A00010B50B6804461B699847204610BD10B55A
:1019B0000B6804465B699847204610BD10B50B685C
:1019C00004469B699847204610BD0000003218BFAE
:1019D0000122074B10B542600360816004460DF0A0
:1019E000E1FC0021206120460DF09EFF204610BD45
:1019F0004C1A020883689A680A60DB684B6070477B
:101A000083681A690A605B694B60704783689A69EA
:101A10000A60DB694B6070478368DA6A0A601A6B98
:101A20004A605A6B8A609A6BCA60DA6B0A611A6CF8
:101A30004A615B6C8B61704783689A6C0A60DA6CF0
:101A40004A601A6D8A605A6DCA609A6D0A61DA6DD1
:101A50004A611B6E8B61704783685A6E0A609A6E8A
:101A60004A60DA6E8A601A6FCA605A6F0A619A6FAA
:101A70004A61DA6F8A61D3F88020CA61D3F8842082
:101A80000A62D3F888204A62D3F88C208A62D3F89D
:101A90009030CB6270478368D3F894200A60D3F803
:101AA00098204A60D3F89C208A60D3F8A020CA60AE
:101AB000D3F8A4200A61D3F8A8204A61D3F8AC2057
:101AC0008A61D3F8B020CA61D3F8B4200A62D3F88F
:101AD000B8204A62D3F8BC208A62D3F8C030CB6207
:101AE000704703689B681847F0B589B006AC84E876
:101AF0000C00129A0B680492119A0392109A0292A7
:101B00000EAA05460E4692E803008DE8030028461B
:101B1000DF68314694E80C00B847284609B0F0BDAC
:101B2000F0B589B006AC84E80C00129A0B680492F8
:101B3000119A0392109A02920EAA05460E4692E856
:101B400003008DE8030028461F69314694E80C0025
:101B5000B847284609B0F0BDF0B589B006AC84E8B6
:101B60000C00129A0B680492119A0392109A029236
:101B70000EAA05460E4692E803008DE803002846AB
:101B80005F69314694E80C00B847284609B0F0BDBB
:101B9000F0B589B006AC84E80C00129A0B68049288
:101BA000119A0392109A02920EAA05460E4692E8E6
:101BB00003008DE8030028469F69314694E80C0035
:101BC000B847284609B0F0BDF0B589B006AC84E846
:101BD0000C00129A0B680492119A0392109A0292C6
:101BE0000EAA05460E4692E803008DE8030028463B
:101BF000DF69314694E80C00B847284609B0F0BDCB
:101C0000003110B518BF0121044B41600360044648
:101C10000DF0BEFBA060204610BD00BFC41A020834
:101C200003689B68184773B5079E01960D68069E6A
:101C30000096ED680446A847204602B070BD0368D0
:101C40001B691847003110B518BF0121044B4160D2
:101C5000036004460DF09CFBA060204610BD00BF51
:101C60005019020810B40468A468A4465DF8044B37
:101C7000604738B50D680446ED68A847204638BD72
:101C800010B504460A480DF0EDFB2368D3E90123A3
:101C9000834202D952F8200008B906F0B8FA0023AE
:101CA000044A05490CF031F808B90CF08FF810BD62
:101CB000F008002084220208FC2C020810B504461B
:101CC0000A480DF0CFFB2368D3E90123834202D9F0
:101CD00052F8200008B906F09AFA0023044A054990
:101CE0000CF013F808B90CF071F810BDB80800201A
:101CF000C01C0208FC2C020810B504460A480DF06E
:101D0000B1FB2368D3E90123834202D952F82000B2
:101D100008B906F07CFA0023044A05490BF0F5FFE8
:101D200008B90CF053F810BDB0080020941C02084C
:101D3000FC2C020810B504460A480DF093FB2368FA
:101D4000D3E90123834202D952F8200008B906F0F2
:101D50005EFA0023044A05490BF0D7FF08B90CF0DE
:101D600035F810BDB4080020881C0208FC2C0208BD
:101D700010B504460A480DF075FB2368D3E901232A
:101D8000834202D952F8200008B906F040FA002335
:101D9000044A05490BF0B9FF08B90CF017F810BD5B
:101DA000C4080020E01B0208FC2C020810B5044601
:101DB0000A480DF057FB2368D3E90123834202D977
:101DC00052F8200008B906F022FA0023044A054917
:101DD0000BF09BFF08B90BF0F9FF10BDC8080020FD
:101DE000C01B0208FC2C020810B504460A480DF07E
:101DF00039FB2368D3E90123834202D952F820003A
:101E000008B906F004FA0023044A05490BF07DFFE7
:101E100008B90BF0DBFF10BDAC080020001C020865
:101E2000FC2C020810B504460A480DF01BFB236881
:101E30009A6882420CD95B6853F8200038B10023BD
:101E4000054A06490BF061FF003018BF012010BDA4
:101E50000020FCE7F008002084220208FC2C020885
:101E600010B504460A480DF0FDFA23689A688242CC
:101E70000CD95B6853F8200038B10023054A0649A5
:101E80000BF043FF003018BF012010BD0020FCE71D
:101E9000B0080020941C0208FC2C020810B504466F
:101EA0000A480DF0DFFA23689A6882420CD95B6811
:101EB00053F8200038B10023054A06490BF025FFEE
:101EC000003018BF012010BD0020FCE7B40800203E
:101ED000881C0208FC2C02082DE9F043DDE9077498
:101EE0000026B446013B12F80CE0A4EB0708BEEB59
:101EF000A80F02EB0C0509DBA0F1040C3B46A34242
:101F000011D053F8047B4CF8047FF8E74FFA8EF9B0
:101F1000B9F1000FF0DD6345A4EB8E048CBF0CF12A
:101F2000010C0136DFE7404416F1FF360FD30160A4
:101F30002B789B00074604EB030E744502D1043353
:101F40001844F1E754F804CB47F804CFF5E795427D
:101F500010D0016015F8013D9B00064604EB030C10
:101F6000644502D104331844F1E754F8047B46F881
:101F7000047FF5E7BDE8F083F7B5DDE908740846AE
:101F80001946DDE90A36C7B1FD1AAD1003EB850C21
:101F9000CDE9003C134602462046FFF79DFF041B97
:101FA000A4103FB132683946521BFFF79FFB3368DC
:101FB0005D1B2C44346003B0F0BD3568E6E773B5B3
:101FC000099DDDE907401E462B6800EB8303CDE940
:101FD0000003134620460A463146FFF77DFF001BEB
:101FE0008010286002B070BD30B59DF80C4084B1FF
:101FF00003460A25B1FBF5F405FB1411043152F830
:10200000211043F8041D2146002CF3D1C01A801082
:1020100030BD03F04A04402C0AD1034601F0070406
:102020000434C90852F8244043F8044DF6D1EDE7D2
:1020300013F4804F14BF14250425034601F00F0448
:102040002C44090952F8244043F8044DF6D1DDE749
:102050002DE9F04114469DF820201D460746DDE994
:102060000683D2B10646204629460A22002317F0ED
:102070007BFC0432204658F8223046F8043D2946BD
:1020800000230A2217F070FC04460D4654EA0503AB
:10209000E9D1B81B8010BDE8F08103F04A02402A64
:1020A00011D1064604F007030433EA0858F8233038
:1020B00046F8043DE30843EA45731C46154654EAD6
:1020C0000503EFD1E5E713F4804F14BF1421042179
:1020D000064604F00F030B442A0958F8233046F84B
:1020E000043D230943EA05731C46154654EA0503DB
:1020F000EFD1CEE710B40468E46AA4465DF8044B5F
:10210000604700002DE9FF47044608460F46FFF7E9
:102110004DFE0546FFF73CFB60612846FFF73BFBA1
:10212000A0612846FFF756FB294660636846FFF723
:1021300035FB009B53F80C0CE0600CF086F8002394
:1021400001460646E268684604F08EFCE3682BB15F
:1021500096F90030002BD4BF0023012329462374B5
:1021600001A8FFF722FB019B53F80C0C344B2062B3
:10217000984294BF80004FF0FF300CF066F8226A5E
:1021800080460023014601A805F09CFB294602A8D1
:10219000FFF712FB029B53F80C0C294BA0629842EC
:1021A00094BF80004FF0FF300CF04FF8A26A8146D8
:1021B0000023014602A805F085FB294603A8FFF786
:1021C00002FB039B53F80C0C1D4B2063984294BFF9
:1021D00080004FF0FF300CF038F8226B01460023EE
:1021E000824603A805F06EFB2846FFF7F6FAA063C7
:1021F0002846FFF7F7FAE0633846FFF741FD114B39
:10220000196804F1400301F10B02FFF773FF01238A
:1022100084F86C30A660C4F81C80C4F82490C4F81C
:102220002CA003A805F0EEFB02A805F0EBFB01A82B
:1022300005F0E8FB684604F0C1FC04B0BDE8F08797
:10224000FEFFFF1F140000202DE9F04105460F4856
:102250000DF008F92B68DE6856F820800446B8F1C6
:10226000000F0FD170200BF03DFD41460746FFF7F0
:1022700049FA29463846FFF745FF2246394628687D
:102280000DF0AEF956F82400BDE8F081C808002032
:102290002DE9FF47044608460F46FFF769FD05464E
:1022A000FFF7B8FA60612846FFF7B7FAA061284641
:1022B000FFF7D2FA294660636846FFF7B1FA009B40
:1022C00053F80C0CE0600BF0C0FF002301460646FB
:1022D000E268684604F0C8FBE3682BB196F9003069
:1022E000002BD4BF002301232946237401A8FFF744
:1022F0009EFA019B53F80C0C344B2062984294BF19
:1023000080004FF0FF300BF0A0FF226A80460023D0
:10231000014601A805F0D6FA294602A8FFF78EFA71
:10232000029B53F80C0C294BA062984294BF80008A
:102330004FF0FF300BF089FFA26A8146002301466F
:1023400002A805F0BFFA294603A8FFF77EFA039B0F
:1023500053F80C0C1D4B2063984294BF80004FF043
:10236000FF300BF072FF226B01460023824603A868
:1023700005F0A8FA2846FFF772FAA0632846FFF78F
:1023800073FAE0633846FFF77BFC114B196804F1E0
:10239000400301F10B02FFF7ADFE012384F86C301E
:1023A000A660C4F81C80C4F82490C4F82CA003A82C
:1023B00005F028FB02A805F025FB01A805F022FB8B
:1023C000684604F0FBFB04B0BDE8F087FEFFFF1F8A
:1023D000140000202DE9F04105460F480DF042F8A9
:1023E0002B68DE6856F820800446B8F1000F0FD144
:1023F00070200BF077FC41460746FFF79DF9294610
:102400003846FFF745FF2246394628680DF0E8F8C0
:1024100056F82400BDE8F081C40800202DE9F043FF
:10242000044685B008460F46FFF748FC01460546BE
:1024300001A8FFF7B5FA019B53F80C0CE0600BF014
:1024400004FF002301460646E26801A804F00CFBE5
:10245000E3682BB196F90030002BD4BF0023012391
:102460002946237402A8FFF7A2FA029B53F80C0C2A
:102470002B4BA061984294BF80004FF0FF300BF0CF
:10248000E4FEA26981460023014602A805F01AFA7B
:10249000294603A8FFF792FA039B53F80C0C204B34
:1024A0002062984294BF80004FF0FF300BF0CDFEC9
:1024B000226A01460023804603A805F003FA284655
:1024C000FFF768FA60622846FFF767FAA0623846AD
:1024D000FFF7D6FB134B196804F12C0301F124021A
:1024E0000546FFF707FE104B1968284601F11A024E
:1024F00004F1BC03FFF7FEFD012384F82431A6603C
:10250000C4F81490C4F81C8003A805F07BFA02A854
:1025100005F078FA01A804F051FB05B0BDE8F0839E
:10252000FEFFFF1F100000200C0000202DE9F041ED
:10253000054610480CF096FF2B68DE6856F82080A0
:102540000446B8F1000F10D14FF494700BF0CAFBA1
:1025500041460746FFF7F8F929463846FFF75EFF80
:102560002246394628680DF03BF856F82400BDE8AD
:10257000F08100BFB808002010B50446006820B103
:10258000FEF75DFD4FF0FF336360204610BD03682A
:102590009B681847F7B56C4684E806009DF8045020
:1025A000089F06463DB93A4619460098FEF75CFD7D
:1025B000874218BF01258DF8045094E8030086E88F
:1025C0000300304603B0F0BD2DE9F04F8FB00DF1A0
:1025D000180ADDF86080049008F16C0420468AE84F
:1025E0000C00FFF74DFB06462046FFF7F3FE1A9B53
:1025F0001D68036C2A689A42044655F80C3C00F0AA
:102600008480826B0992D0F82890426A02923268E4
:102610003046576905EB83032A460421B847401B1F
:102620008610B346002E00F0C6800EAF7A4B47F8F6
:10263000103D7100384605F023FB626BB31A002B86
:1026400074DD16EA220638BF1E46E368002B67D009
:1026500000227100384605F087FA384605F046FA40
:1026600005EB8603CDE900530A98A169D4E902235A
:10267000FFF732FC0390384605F038FA0A9B0399BD
:10268000C91A4FF0FF328910384605F039FA636BEA
:10269000002B0BDD61690AA805F0C5FB002E47DBA6
:1026A000626B05EB86010AA805F034FBD8F80C2014
:1026B00002F0B00303930A9B12F4007253F80C3C2F
:1026C00018BF226A0EAD4B441344534A45F80C2DF3
:1026D00059002846059305F0D3FA039BD8F8086003
:1026E000102B059B2CD1B3422CBF4FF0000B4FF0A9
:1026F000010BF31A0027059309ABDB5D042B2BD8E4
:10270000DFE803F07E7321656E00C26B0992C26A36
:102710000292D0F83090002B3FF479AF043576E781
:1027200032462946384605F04FFAB0E71E46AEE776
:10273000626C71420AA805F027FB5A462946B2E7A7
:102740004FF0000BD5E7D8F80C309B0504D5D4E941
:1027500007120BA805F0DEFA0137042FCCD1B9F12E
:10276000010F06D9029909F1FF320431284605F01C
:10277000D1FA0B9B53F80C1C8E4209D9039B202BDA
:10278000A6EB010140D1199A284605F0FDFA314621
:102790000CAC00919AE806000B9B2046FFF7FAFE6E
:1027A00094E80300069028468DF81C1005F02AF9DD
:1027B0000AA805F027F99AE803000023C8F80830B2
:1027C000049B83E8030018460FB0BDE8F08FB9F111
:1027D000000FC1D0029B1968284605F024FBBBE717
:1027E0000AA9284605F092FAB6E7BBF1000F05D01A
:1027F000199A05990BA805F0C7FAADE71999EBE707
:10280000BBF1000FA8D0F3E70A46199B0021284628
:1028100005F0B6F9BBE700BFE80800202DE9F04F4E
:102820008FB00DF1180ADDF86080049008F16C0497
:1028300020468AE80C00FFF723FA06462046FFF7F9
:1028400003FD1A9B1D68036C2A689A42044655F8DA
:102850000C3C00F08480826B0992D0F82890426A88
:10286000029232683046576905EB83032A460421F9
:10287000B847401B8610B346002E00F0C6800EAF4E
:102880007A4B47F8103D7100384605F0F9F9626B54
:10289000B31A002B74DD16EA220638BF1E46E36821
:1028A000002B67D000227100384605F05DF93846EC
:1028B00005F01CF905EB8603CDE900530A98A169E0
:1028C000D4E90223FFF708FB0390384605F00EF920
:1028D0000A9B0399C91A4FF0FF328910384605F058
:1028E0000FF9636B002B0BDD61690AA805F09BFAF9
:1028F000002E47DB626B05EB86010AA805F00AFA99
:10290000D8F80C2002F0B00303930A9B12F4007273
:1029100053F80C3C18BF226A0EAD4B441344534A83
:1029200045F80C2D59002846059305F0A9F9039B9D
:10293000D8F80860102B059B2CD1B3422CBF4FF068
:10294000000B4FF0010BF31A0027059309ABDB5D79
:10295000042B2BD8DFE803F07E7321656E00C26B79
:102960000992C26A0292D0F83090002B3FF479AFFE
:10297000043576E732462946384605F025F9B0E7B2
:102980001E46AEE7626C71420AA805F0FDF95A4690
:102990002946B2E74FF0000BD5E7D8F80C309B057D
:1029A00004D5D4E907120BA805F0B4F90137042FB8
:1029B000CCD1B9F1010F06D9029909F1FF320431E6
:1029C000284605F0A7F90B9B53F80C1C8E4209D939
:1029D000039B202BA6EB010140D1199A284605F054
:1029E000D3F931460CAC00919AE806000B9B2046C7
:1029F000FFF7D0FD94E80300069028468DF81C10E0
:102A000005F000F80AA804F0FDFF9AE8030000238F
:102A1000C8F80830049B83E8030018460FB0BDE8EF
:102A2000F08FB9F1000FC1D0029B1968284605F05C
:102A3000FAF9BBE70AA9284605F068F9B6E7BBF141
:102A4000000F05D0199A05990BA805F09DF9ADE77F
:102A50001999EBE7BBF1000FA8D0F3E70A46199BE1
:102A60000021284605F08CF8BBE700BFE8080020ED
:102A70002DE9F04F2DED028BB0EE408B8FB004AFFF
:102A800007F1100686E80C0097F85830BB60FB6D24
:102A900081468A4607F1200003F16C010CF068FCC6
:102AA00007F12000FFF7ECF892B0F8600CF070FC32
:102AB00007F128050DF1100845F8040D4FF0000B43
:102AC0008DED028BCDF800B02B4B402241462846BD
:102AD000FEF7CCFD3F28044616DD0F3424F0070432
:102AE000ADEB040D421C7A600CF052FC0DF11008A5
:102AF00078628DED028BCDF800B01F4B7A684146AD
:102B00002846FEF7B3FD0446214607F11C030022C8
:102B1000284604F05DFF4444284604F0E7FF7B6A42
:102B2000F86822464146FFF7E5FABB680295C3B153
:102B30003B6E0193FB6D0093514696E80C004846AE
:102B4000FFF742FD07F1240004F05CFF07F12000CD
:102B50000CF072FC48462C37BD46BDEC028BBDE83C
:102B6000F08F3B6E0193FB6D0093514696E80C008D
:102B70004846FFF753FEE5E7B81B0208F0B587B0FB
:102B800004AC84E80C00DDE90D320F9D9DF8307037
:102B90000093CDE90125064694E80C0027B1FFF724
:102BA00013FD304607B0F0BDFFF738FEF9E70368C4
:102BB0001B6B184703689B6A18472DE9F8431D46AD
:102BC000C368DDE9086703F0B003202B894614468B
:102BD000A6EB07060CD13A4629462046FEF786FDAD
:102BE0004A46314604EB8700FEF784FDBDE8F883D2
:102BF000102B0FD04FF000084A4631462046FEF712
:102C000079FDA7EB080205EB880104EB8600FEF7CF
:102C10006DFDEBE76C30FFF733F82D218046FFF7B1
:102C2000C9FF2B68984205D12B6844F8043B4FF04C
:102C30000108E1E72B214046FFF7BCFF2B689842D3
:102C4000F2D030214046FFF7B5FF2B689842D1D132
:102C5000012FCFDD78214046FFF7ACFF6B6898422B
:102C600007D12B6823606B6863604FF0020808345B
:102C7000C2E758214046FFF79DFF6B689842B9D1E3
:102C8000EFE737B5089C184623681546CDE90023C1
:102C9000DDE90623FFF791FF256003B030BD2DE984
:102CA000F04F8BB004AFC7E900103E6C07F108018C
:102CB00006F16C0081E80C00FFF738FCF568B96C90
:102CC00005F04A0A96B0BAF1400F044600F12C090B
:102CD0000DF1100B02D0BAF1080F71D14FF00008BE
:102CE0002B464A46CDF800800BF15000FFF77CF9E7
:102CF000227C7861C0F114030BEB830392B1C00016
:102D00001030ADEB000D0DF1180B07F11402CDE9F9
:102D10000232CDE9006B3868A36AD4E90212FFF7EA
:102D20004EF95B467A69B8F1000F31D0B96C0029D1
:102D30002CDB280505D5216B43F8041C01327A6190
:102D4000043BB2687969914211DA91000E3121F0A9
:102D50000701ADEB010D04AC07F11401CDE9013120
:102D600000943346796C3868FFF78BFF23460022C6
:102D7000B2607A69009207F10802786806CAFFF724
:102D800009FC78681C37BD46BDE8F08FE16AD3E7DF
:102D9000A905D6D5B96C0029D3D0BAF1400F01D11D
:102DA000E16BC9E7C5F380350235023259F82510C9
:102DB00043F8041CE16B43F8081C7A61083BC0E748
:102DC000BB6C002B01DCBB6C59424FF0010887E75C
:102DD00030B587B004AC84E80C000C9B02930B9BCD
:102DE00001930A9B009394E80C000546FFF757FFF8
:102DF000284607B030BD2DE9F04F8BB004AF07F186
:102E00000805D7F840A0386085E80C00DAF80C30E7
:102E100097F848607B6013F0010F07F1100416D19A
:102E20007B6C0296CDE900A3204695E80C00FFF7E5
:102E300036FF94E80300B860397395E803003B68F7
:102E40001C3783E803001846BD46BDE8F08F0AF141
:102E50006C00FFF76BFB86B3D0E90598DAF80860E1
:102E6000B0453CDAA6EB0806B2000E3222F00702AB
:102E7000ADEB020D0DF1100B7A6C31465846FEF7A2
:102E800039FC7B6803F0B0030022202BCAF808202D
:102E900016D14B4695E806002046CDF80080FFF796
:102EA00079FB94E803005B46B8603973009695E8B7
:102EB00006002046FFF76EFBBBE7D0E90798CDE799
:102EC00095E80600204600965B46FFF763FB94E812
:102ED0000300B8603973CDF800804B46E7E7002265
:102EE000CAF80820F7E72DE9F04F8BB004AFC7E927
:102EF00000103E6C07F1080106F16C0081E80C003F
:102F0000FFF714FBF46804F04A0896B0B8F1400FDC
:102F1000054600F12C0A0DF1100B5DD0B8F108093F
:102F200018BF4FF0010923465246CDF80090B96C06
:102F30000BF15000FFF758F82A7C7861C0F11403B8
:102F40000BEB830392B1C0001030ADEB000D0DF11F
:102F5000180B07F11402CDE90232CDE9006B386895
:102F6000AB6AD5E90212FFF72AF85B46B9F1000F08
:102F70000DD1A2050BD5BA6C4AB1B8F1400F7A69F0
:102F80002DD1E96B43F8041C01327A61043BB2682D
:102F90007969914211DA91000E3121F00701ADEB10
:102FA000010D04AC07F11401CDE901310094334661
:102FB000796C3868FFF765FE23460022B2607A69B3
:102FC000009207F10802786806CAFFF7E3FA78680A
:102FD0001C37BD46BDE8F08F4FF00009A3E7C4F3EE
:102FE0008034023402325AF8241043F8041CE96B8E
:102FF00043F8081C7A61083BC9E730B587B004ACD8
:1030000084E80C000C9B02930B9B01930A9B00939A
:1030100094E80C000546FFF766FF284607B030BD70
:103020002DE9F04188B004AC0E9DD5F80C8084E801
:103030000C0028F4804323F04A0343F40273EB604E
:10304000109B02930F9BCDE9005306AF064694E810
:103050000C003846FFF747FF97E8030004908DF80F
:10306000141094E8030086E803003046C5F80C808D
:1030700008B0BDE8F0812DE9F04F8BB004AFC7E98F
:1030800000103E6C07F1080106F16C0081E80C00AD
:10309000FFF74CFAF56805F04A09AAB0B9F1400FFC
:1030A000044600F12C0A0DF1100BD7E9122302D0CF
:1030B000B9F1080F75D14FF00008CDE90158CDF8EE
:1030C00000A00BF1A000FEF7C3FF227C7861C0F1E5
:1030D00028030BEB830392B1C0001030ADEB000D61
:1030E0000DF1180B07F11402CDE90232CDE9006BA6
:1030F0003868A36AD4E90212FEF761FF5B467A6979
:10310000B8F1000F34D0D7E91201002871F10001A5
:103110002CDB280505D5216B43F8041C01327A61AC
:10312000043BB2687969914211DA91000E3121F0C5
:103130000701ADEB010D04AC07F11401CDE901313C
:1031400000943346796C3868FFF79BFD23460022D4
:10315000B2607A69009207F10802786806CAFFF740
:1031600019FA78681C37BD46BDE8F08FE16AD3E7ED
:10317000A905D6D5D7E912010143D2D0B9F1400F44
:1031800001D1E16BC8E7C5F38035023502325AF848
:10319000251043F8041CE16B43F8081C7A61083BD6
:1031A000BFE7D7E91201012871F1000104DAD7E97C
:1031B0001223524263EB43034FF001087DE730B521
:1031C00087B004AC84E80C00DDE90C23CDE90223D0
:1031D0000B9B01930A9B009394E80C000546FFF7B4
:1031E0004AFF284607B030BD2DE9F04F8BB004AF41
:1031F000C7E900103E6C07F1080106F16C0081E898
:103200000C00FFF793F9F46804F04A08AAB0B8F18B
:10321000400F054600F12C0A0DF1100B60D0B8F1FB
:10322000080918BF4FF00109D7E91223CDE9014978
:10323000CDF800A00BF1A000FEF70AFF2A7C786110
:10324000C0F128030BEB830392B1C0001030ADEB4B
:10325000000D0DF1180B07F11402CDE90232CDE992
:10326000006B3868AB6AD5E90212FEF7A8FE5B4630
:10327000B9F1000F0FD1A2050DD5D7E912120A43FB
:1032800009D0B8F1400F7A692DD1E96B43F8041CDD
:1032900001327A61043BB2687969914211DA910096
:1032A0000E3121F00701ADEB010D04AC07F1140163
:1032B000CDE9013100943346796C3868FFF7E1FCC1
:1032C00023460022B2607A69009207F1080278680A
:1032D00006CAFFF75FF978681C37BD46BDE8F08F76
:1032E0004FF00009A0E7C4F38034023402325AF8E8
:1032F000241043F8041CE96B43F8081C7A61083B6E
:10330000C9E730B587B004AC84E80C00DDE90C23D4
:10331000CDE902230B9B01930A9B009394E80C00D8
:103320000546FFF761FF284607B030BD2DE9F04F95
:103330002DED028BB0EE408B8FB004AF8146BD6D9A
:10334000396005F16C0A07F10801504681E80C006C
:10335000FFF7ECF8D5F8048097F86020B8F1000F7B
:10336000064607F118012846B8BF4FF006080BF0D3
:10337000A4FEEB6803F482738EB0B3F5827F7B60AA
:1033800004AC00F0B1800CF003F88DED028B786195
:10339000CDF8008007F118032D22214607F1140013
:1033A000FEF764F938613B692C2B1CDD03F1010B3E
:1033B0000F3323F00703ADEB030D7B68B3F5827F7A
:1033C00004AC00F09F800BF0E3FF8DED028B786181
:1033D000CDF8008007F118035A46214607F1140082
:1033E000FEF744F938615046FEF74AFC3A6993000B
:1033F0000E3323F00703ADEB030D0DF11008434628
:1034000022442146FEF776FED7F810B0BBF1000F3C
:1034100000F088805A462E21204617F0C1F928B1C5
:10342000031B726A48F8232008EB8300337C9BB3AC
:1034300050B9BBF1020F07DD6378303B092B2BD865
:10344000A378303B092B27D84FEACB030833ADEBE9
:10345000030D23782D2B0DF1100A01D02B2B63D1F6
:10346000D8F80030CAF800300BF1FF333B6101247B
:10347000A30007F11002039208EB03025344CDE9C5
:1034800000030292B36A3868D6E90212FEF774FDAF
:103490003B691C443C61D046AA683B69934211DAFF
:1034A00093000E3323F00703ADEB030D04AC07F1DB
:1034B0001003CDE9018300942B46F96D3868FFF7BE
:1034C000E0FBA0460023AB603B69009307F10802D4
:1034D0004846434606CAFFF75DF848462C37BD46C6
:1034E000BDEC028BBDE8F08F0BF052FF8DED008B31
:1034F000786107F118032D22214607F11400FEF729
:10350000B5F84FE70BF044FF07F1280C07F118035B
:103510004CF8140D5A468DED008B21466046FEF79F
:10352000A5F85FE7584681E70024A1E730B587B0EA
:1035300004AC84E80C00002302930B9B01930A9BCC
:10354000009394E80C000546FFF7F0FE284607B00C
:1035500030BD2DE9F04F2DED028BB0EE408B8FB0DA
:1035600004AF8146BD6D396005F16C0A07F10801B1
:10357000504681E80C00FEF7D9FFD5F8048097F893
:103580006020B8F1000F064607F118012846B8BFC1
:103590004FF006080BF091FDEB6803F482738EB0D8
:1035A000B3F5827F7B6004AC00F0B1800BF0F0FEDD
:1035B0008DED028B7861CDF8008007F118032D2284
:1035C000214607F11400FEF751F838613B692C2BB6
:1035D0001CDD03F1010B0F3323F00703ADEB030DEB
:1035E0007B68B3F5827F04AC00F09F800BF0D0FEC7
:1035F0008DED028B7861CDF8008007F118035A46F3
:10360000214607F11400FEF731F838615046FEF705
:1036100037FB3A6993000E3323F00703ADEB030D3C
:103620000DF11008434622442146FEF763FDD7F80A
:1036300010B0BBF1000F00F088805A462E212046C2
:1036400017F0AEF828B1031B726A48F8232008EB84
:103650008300337C9BB350B9BBF1020F07DD637865
:10366000303B092B2BD8A378303B092B27D84FEAC6
:10367000CB030833ADEB030D23782D2B0DF1100A8E
:1036800001D02B2B63D1D8F80030CAF800300BF1F1
:10369000FF333B610124A30007F11002039208EB02
:1036A00003025344CDE900030292B36A3868D6E9B5
:1036B0000212FEF761FC3B691C443C61D046AA68DB
:1036C0003B69934211DA93000E3323F00703ADEB0D
:1036D000030D04AC07F11003CDE9018300942B46E0
:1036E000F96D3868FFF7CDFAA0460023AB603B695F
:1036F000009307F108024846434606CAFEF74AFF10
:1037000048462C37BD46BDEC028BBDE8F08F0BF070
:103710003FFE8DED008B786107F118032D222146C5
:1037200007F11400FDF7A2FF4FE70BF031FE07F1A0
:10373000280C07F118034CF8140D5A468DED008B38
:1037400021466046FDF792FF5FE7584681E7002477
:10375000A1E730B587B004AC84E80C004C23029399
:103760000B9B01930A9B009394E80C000546FFF71E
:10377000F0FE284607B030BD2DE9F043ADF5097DD8
:103780000746909D9DF84C829DF850626C35284606
:1037900002AC84E80C00FEF773FA81462846FEF777
:1037A00023FB252105464846FFF704FA0490C6B9D5
:1037B000CDE90586929B009308A904AB8022284698
:1037C0000CF084F808A81AF05BF8009008AB3846B3
:1037D00094E80600FEF7DEFE38460DF5097DBDE8EB
:1037E000F0830023CDE905680793E3E703689B694D
:1037F0001847036810B504465BB14068421C07D106
:103800001846FDF728FC431C0ABF002360602360B4
:1038100010BD4FF0FF30FBE738B50D46FFF7E9FF6D
:1038200004462846FFF7E5FF431C584204F1010215
:10383000584154425441011B4842484138BD08B5E3
:10384000FFF7EAFF80F00100C0B208BD2DE9F74F95
:103850008146DDE9120602A96C30DDF8448001E9F9
:103860000C00FEF70DFAB8F1020F83462ED0B8F126
:10387000040F0CBF4FF47A770127002425464FF040
:103880000A0A0CA96846FFF7DAFF08B3454521D0BC
:103890006846FFF7AEFF2A2201465846FFF787F930
:1038A0003038C2B2092A20D80AFB0404109B04FB5A
:1038B00007F29A4219DC0F9B3A449A4215DD97FBB6
:1038C000FAF76846FEF758FE0135DAE70A27D4E72B
:1038D00045450AD10E9B1C6002AB13E9030089E841
:1038E0000300484603B0BDE8F08FB8F1040F03D1E0
:1038F000022D01D1643CEDE7336843F004033360EB
:10390000EAE72DE9F04F87B000AF07F11004F86047
:10391000786DD7F84C806C3084E80C00FEF7B0F975
:103920003B6D9B000E3323F007038346ADEB030D85
:1039300007F1400120466E46FFF781FF00287ED048
:103940002046FFF756FF4FF0000982464D463B6D7B
:10395000994510D058F829100968514505D146F805
:103960002590013509F10109F1E75846FFF73EFFBF
:103970005045F7D1F3E74FF0000B012D41D9B14687
:1039800059F8042B58F8220019F07AFF06EB85014C
:10399000824659F8040BB96058F8200019F070FFFE
:1039A000B968824528BF82464945F2D120460BF1CD
:1039B000010BFEF7E1FDD34541D207F1400120465E
:1039C000FFF73DFF00283AD04FEA8B024FF0000A84
:1039D00056F82A1058F8211089582046C7E90121C5
:1039E000FFF707FFB9687A68814217BF05F1FF3515
:1039F0000AF1010A56F8251046F82A10AA45E7D31D
:103A0000BBE71CD12046FEF7B7FD356858F82560A6
:103A1000304619F035FF0BF1010B8046C3451ED22D
:103A200007F140012046FFF70AFF40B156F82B305E
:103A3000BB602046FFF7DDFEBB68834213D0BB6D41
:103A4000BA6D1B6843F00403136094E80300FB683D
:103A50001C3783E803001846BD46BDE8F08FEED161
:103A6000BB6C1D60F1E72046FEF786FD0BF1010BF4
:103A7000D4E72DE9F04F85B000AF8146F86CD7F858
:103A800044A007F108086C3088E80C00FEF7F8F84D
:103A9000BB6CDB0008338346ADEB030D07F1380147
:103AA00040466D46FFF7CBFEB0B34046FFF7A1FEA0
:103AB000BA6C0026034652003446B24213D05AF87C
:103AC00026100968994204D145F824600134013672
:103AD000F3E75846C7E90032FFF788FE3B687A688B
:103AE0009842F4D1F0E7BCB14046FEF745FDA30093
:103AF0000E3323F00703ADEB030DEB46002655F81C
:103B000026305AF8230019F0BBFE4BF82600013688
:103B1000B442F4D1012602E00026B34634464FEA0F
:103B2000860807F1380107F10800FFF788FE68B33F
:103B300007F10800FFF75DFE0023844619469C420A
:103B40001AD95BF823209800B2420BEB000E02D882
:103B500001310133F3E755F823205AF8222052F8B7
:103B600008206245F5D0013C55F824202A505BF826
:103B70002420CEF80020E2E78C4208F1040805D0AA
:103B800007F10800FEF7F8FC0136CAE7012C15D151
:103B9000DBF80030B3421AD1BA6C2B68934228BFCD
:103BA0009B1A3A6C136007F1100313E903001437F2
:103BB00089E803004846BD46BDE8F08F022C06D1D7
:103BC000DBF80030B342E7D0DBF80430E2E73B6DCE
:103BD0003A6D1B6843F00403E4E700002DE9F04F61
:103BE0009FB00D462A9C0B9004F16C060EA930463E
:103BF00081E80C00DDF8B0A0FEF7F6F8089030463A
:103C0000FEF73EF883462D9819F03AFE00260A90FA
:103C100010960EAF28A93846FFF711FEDDF8409048
:103C2000002867D00A9B9E4264D2B9F1000F61D18F
:103C30002D9B4A4653F82610584603EB8608FEF79C
:103C4000B6FF252840F0BD82731C4A46D8F8041000
:103C500009935846FEF7ABFF4528CDF8449001D0B4
:103C60004F2807D1B31C0022D8F8081009935846F2
:103C7000FEF79DFF41380EAE382800F29D82DFE846
:103C800010F074009F00E90100019B029B029B025F
:103C9000200145019B029B029B0274019B029B0237
:103CA0009B029B02A801AD01DB019B029B029B02D0
:103CB000E401E90113029B029B029B029B029B020F
:103CC0009B024E007A00A500AD00C2009B029B0241
:103CD0007A009B029B029B029B02500199019B026E
:103CE0009B029B029B029B02D1019B029B029B02B7
:103CF000DF01E901B9F1000F02D10A9B9E4205D014
:103D00002B9B2B9A1B6843F00403136097E8030076
:103D10000B9B83E8030018461FB0BDE8F08F12AE7E
:103D200031460898FDF788FE10ABCDE9054307231F
:103D3000CDE9036311AB029328AB93E803008DE850
:103D400003000CAF0EAE96E80C0029463846FFF78C
:103D5000D8FD97E80300109B86E8030013B9119B78
:103D6000CAF81830099E013653E712AE314608985A
:103D7000FDF752FED8E712AE31460898FDF78BFEEC
:103D800010ABCDE905430C23CDE9036311AB0293DE
:103D900028AB93E803008DE803000CAF0EAE96E865
:103DA0000C0029463846FFF7ACFD97E80300109B4E
:103DB00086E80300002BD5D1119BCAF81030D1E75B
:103DC00012AE31460898FDF747FED9E712A90898C8
:103DD000FDF71CFE129B05930CAF5CE010ABCDE928
:103DE000064302211F23CDE904310123039311ABC4
:103DF000029328AB93E803008DE803000CAF0EAEEE
:103E000096E80C001DE03046FFF7F3FC082102465F
:103E10005846FEF7BCFB0CAF10B33046FEF7ACFBC8
:103E200010AACDE9064209210122CDE9041203922C
:103E300011AA029228AA034692E803008DE8030023
:103E40000CCB29463846FFF701FD97E80300109B8D
:103E500086E80300002B85D1119BCAF80C3081E75E
:103E600010ABCDE9064302221F23CDE904320A2319
:103E7000039311AB029328AB93E803008DE8030092
:103E8000BEE712AEC84A3346A2F109015846FEF712
:103E900031F90CAF059610ABCDE90243CDF810A077
:103EA00028AB93E803008DE803000EAE29463846A0
:103EB00096E80C00FFF792FE97E8030086E80300FF
:103EC00050E710ABCDE906434FF002091723CDE9C7
:103ED00004390CAF0023039311AB029328AB93E892
:103EE00003008DE803000EAE96E80C002946384624
:103EF000FFF7ACFC97E80300109B86E80300002B5B
:103F00007FF430AF119BCAF808302BE710ABCDE936
:103F100006434FF002080C23CDE904380CAF01230F
:103F2000D9E710ABCDE906434FF0020E0C23CDE9E3
:103F3000043E0123039311AB029328AB93E80300E3
:103F40008DE803000CAF0EAE96E80C00294638460B
:103F5000FFF77CFC97E80300109B86E80300002B2A
:103F60007FF400AF119B013B27E710ABCDE906437F
:103F70004FF0020C3B23CDE9043C0023039311AB2B
:103F8000029328AB93E803008DE803000CAF0EAE5C
:103F900096E80C0029463846FFF758FC97E80300DE
:103FA000109B86E80300002B7FF4DCAE119BCAF85F
:103FB0000430D7E63046FFF71CFC00220146584685
:103FC000FEF7F5FD0A2840F0F7803046FEF7D4FAF8
:103FD000C8E6764A12AE3346911F57E710ABCDE9DB
:103FE000064302263D23CDE904360023039311AB9B
:103FF000029328AB93E803008DE803000CAF0EAEEC
:1040000096E80C0029463846FFF720FC97E80300A5
:10401000109B86E80300002B7FF4A4AE119BCAF826
:1040200000309FE63046FFF7E4FB00220146584689
:10403000FEF7BDFD0928C6E712AE33465C4A23E70A
:1040400012A90898FDF7D6FCC4E612A90898FDF756
:10405000D7FCBFE610ABCDE90643042042F20F7354
:10406000CDE904300023039311AB029328AB93E80E
:1040700003008DE803000CAF0EAE96E80C00294655
:104080003846FFF7E3FB97E80300109B86E8030040
:10409000002B7FF467AE119B002BB4BF6433A3F2F7
:1040A0006C73CAF814305DE63046FFF7A2FB0121BD
:1040B00002465846FEF76BFA00287DD010ABCDE9DA
:1040C00005430E2304933B4B039312AB029328AB9F
:1040D00093E803008DE803000CAF2946384696E8C4
:1040E0000C00FFF70EFC97E8030086E8030028A900
:1040F0003046FFF7A4FB00283FF434AE109B002BA2
:104100007FF430AE129B002B7FF42CAE3046FFF7CD
:1041100070FB2D2107465846FEF74CFDB84236D1BC
:1041200010AF17230222CDE90432CDE90647002360
:1041300012AE0393029628AB93E803008DE80300C8
:104140000DF130090DF1380898E80C002946484671
:10415000FFF77CFB99E803003B2388E8030002217A
:10416000CDE904310023CDE90263CDE9064728AB50
:1041700093E803008DE803002946484698E80C00C0
:10418000FFF764FB99E8030088E80300EAE530469E
:10419000FFF72FFB2B2106465846FEF70BFDB042DA
:1041A0007FF4E0ADBCE700BFA91B0208AF1B02080B
:1041B000B81B020850000020109B43F0040310932A
:1041C000D0E52D9B384653F82680FFF712FB80453B
:1041D00003D13846FEF7D0F9C5E5109B43F0040340
:1041E0001093C0E52DE9F04F89B004AE0290149809
:1041F0006C3086E80C00FEF799F90023044612A9FA
:1042000030460693FFF708FB8246002849D1304626
:10421000FFF7EFFAD4F8C0100690814203D0D4F82B
:10422000BC30834219D1237C13B1A36A834214D0DA
:10423000636A834211D0814214BF2D212B2116982D
:1042400002F0F3FE3046FEF797F912A9FFF7F7FAEE
:1042500038B33046FFF7CDFA06900027B846227CE7
:10426000069B12B1A26A9A4220D0626A9A421DD07D
:10427000D4F8CC209A4219D11FB93021169802F0F7
:10428000D4FE3046FEF778F912A9FFF7D8FA08F104
:104290000108074600284CD03046FFF7AAFA0690DE
:1042A000DDE74FF0000847464FF0010AA64B0793A1
:1042B000237C1BB1202107A802F0E4FD94F824B16F
:1042C000BBF1000F5DD004F1CC0300250193A9469A
:1042D000BAF1000F40F0A080227C069B002A00F07B
:1042E000BF80A26A9A4240F0BB80B9F1000F40F053
:1042F0009380002D40F09080B8F1000F00F088808E
:104300005FFA88F107A802F090FEBA464B46C8460D
:1043100030460393FEF730F912A9FFF790FA039B9A
:10432000002873D03046FFF764FA00250690039BFF
:1043300066E04FF0010A5746B8E7AA465D465F4679
:10434000BAF1000F68D1069A0A201146FDF76EF9FE
:10435000431C19D000F13001C9B2169802F065FE75
:104360004FF0010B3046FEF707F912A9FFF767FA85
:1043700020B13046FFF73DFA0690E0E74FF0010A22
:10438000DDE75D46D946DBE7636A9A420BD1B9F1B6
:10439000000F08D13DB92E21169802F046FEBB460B
:1043A0004FF00109DEE7D4F804319A4203D0D4F883
:1043B0001C319A4230D17DBB77B36521169802F04B
:1043C00034FE3046FEF7D8F812A9FFF738FA8346D4
:1043D000002800F0B6803046FFF70BFAD4F8C03062
:1043E0000690834209D0D4F8BC308342A5D12D2158
:1043F000169802F01AFE5D46B4E72B21F8E79A46BC
:104400005746AA461D4663E75346F9E75D46F7E778
:10441000169802F0DDFBC14608AF57F8043D53F88B
:104420000C3C8BB1B9F1000F05D125B95FFA88F1C9
:10443000384602F0FAFD3A46D4E902010AF0ACFE31
:1044400010B9159B04221A6096E80300029B83E8CA
:104450000300384602F0B2FB029809B0BDE8F08FC5
:10446000626A9A4215D1079B53F80C3CB9F1000FD0
:10447000D2D1002DD0D123B15FFA88F107A802F084
:10448000D4FD2E21169802F0D0FDD9460023BA465D
:104490003EE706AA0A210198FDF720F960B1019BC9
:1044A000C11A89103031C9B2169802F0BEFD08F168
:1044B00001082B46DA462BE7069BD4F804219A42E2
:1044C00003D0D4F81C219342A6D1079B53F80C3C8F
:1044D000002DA1D1002F9FD03BB1B9F1000F04D125
:1044E0005FFA88F107A802F0A0FD6521169802F096
:1044F0009CFD3046FEF740F812A9FFF7A0F982466E
:10450000F8B13046FFF775F9D4F8C0100690814233
:1045100004D0D4F8BC3083427FF476AF237C1BB147
:10452000A26A82423FF46BAF636A83423FF46CAF8E
:10453000814214BF2D212B21169802F076FD53469F
:10454000E6E63D4668E700BFD80800202DE9F043C5
:104550008DB008AC0CAD84E80C001F4B45F8083D4D
:10456000179E894607462021284602F08BFCCDE99C
:104570000365169B029314AB93E803008DE80300D8
:104580000DF1180894E80C0040464946FFF72AFE52
:1045900098E80300DDF8288084E803000AF0F8FEBC
:1045A0000CAB189943F8040D324640460BF0BAFAAA
:1045B00014A92046FFF730F918B1336843F002031D
:1045C000336094E8030087E80300284602F0F6FA17
:1045D00038460DB0BDE8F083D80800202DE9F0433F
:1045E0008DB008AC0CAD84E80C001F4B45F8083DBD
:1045F000179E894607462021284602F043FCCDE954
:104600000365169B029314AB93E803008DE8030047
:104610000DF1180894E80C0040464946FFF7E2FD0A
:1046200098E80300DDF8288084E803000AF0B0FE73
:104630000CAB189943F8040D324640460BF0C4FA0F
:1046400014A92046FFF7E8F818B1336843F00203D5
:10465000336094E8030087E80300284602F0AEFACE
:1046600038460DB0BDE8F083D80800202DE9F043AE
:104670008DB008AC0CAD84E80C001F4B45F8083D2C
:10468000179E894607462021284602F0FBFBCDE90C
:104690000365169B029314AB93E803008DE80300B7
:1046A0000DF1180894E80C0040464946FFF79AFDC2
:1046B00098E80300DDF8288084E803000AF068FE2B
:1046C0000CAB189943F8040D324640460BF0D8FA6B
:1046D00014A92046FFF7A0F818B1336843F002038D
:1046E000336094E8030087E80300284602F066FA86
:1046F00038460DB0BDE8F083D80800202DE9F04F12
:104700008BB00DF1180A169C059004F16C008AE834
:104710000C00FDF70BFFE76807F04A070023402F66
:104720000546089348D0082F14BF4FF00A084FF0F1
:10473000100814A95046FFF76FF8814600286FD182
:104740005046FFF756F8D5F8BC30089083420CBFAE
:104750004FF0010B4FF0000B03D0D5F8C03083426F
:1047600014D12B7C13B1AB6A83420FD06B6A8342A6
:104770000CD05046FDF700FF14A9FFF760F806467D
:10478000002857D05046FFF734F8089000263446EA
:104790002A7C089B12B1AA6A9A4245D06A6A9A4258
:1047A00042D0D5F8CC209A4210D146B1B8F10A0FC8
:1047B0000DD147B93C4629E04FF00808B9E71FB3CF
:1047C000B8F1080F25D0013401260EE0D6B1D5F896
:1047D000C4209A4203D0D5F8C8209A422ED1D7B12E
:1047E000B8F1100F2FD1002426465046FDF7C4FE25
:1047F00014A9FFF724F818B35046FEF7FAFF089003
:10480000002EC5D1B1460FE03C4601264FF0080806
:10481000EBE73446D8E73E463C464FF01008E4E765
:104820004FF0000B5C465E46B8F1100F0CD116231A
:1048300001930BE04FF001090446F5E70126F3E789
:104840004FF00109F0E70126CDF804806B4B099386
:104850002B7C1BB1202109A802F014FBBBF1000F37
:104860000CBF6FF000434FF000430293B3FBF8F32B
:10487000039395F824310093002B4AD005F1CC0323
:1048800000270493BA46B9F1000F1BD12B7C089A7C
:10489000002B6AD0A96A8A4267D1A4B1E1B209A803
:1048A00002F0C3FB002406A8FDF766FE14A9FEF77C
:1048B000C6FF002856D006A8FEF79BFF0890E5E744
:1048C0004FF001090023099A52F80C2C72B1E1B2A1
:1048D00009A8009302F0A9FB09AAD5E902010AF090
:1048E0005BFC009B10B9179904220A602CB926B909
:1048F000099A52F80C2C002A5AD0002B58D1BAF140
:10490000000F71D1BBF1000F00D07F42189B1F60D8
:1049100054E0DDF800A05746B9F1000FD2D1089954
:104920000198FCF783FE431CCCD0039B9F4216D812
:10493000029B07FB08F71B1ABB4238BF4AF0010A6B
:104940000134074406A8FDF717FE14A9FEF777FF08
:104950000028B5D006A8FEF74CFF0890DFE74FF01F
:10496000010AEFE7DDF800908DE76B6A9A42A9D063
:1049700008AA01990498FCF7B1FEB8B1049B039A08
:10498000C01A3C284FEAA003C8BF063B97420AD88A
:10499000029A07FB08F7D21ABA4238BF4AF0010A56
:1049A00001341F447FE7DDF800A07CE703468AE777
:1049B0000023189A1360179A04231360B9F1000FAB
:1049C00005D0179B179A1B6843F00203136006ABD0
:1049D00093E80300059B83E8030009A802F0EEF8C2
:1049E00005980BB0BDE8F08FBBF1000F02D04FF07F
:1049F0000043DEE76FF00043DBE700BFD80800208C
:104A000070B588B006AC84E80C00109B04930F9B33
:104A100003930E9B02930CAB05460E4693E80300EE
:104A20008DE80300284694E80C003146FFF766FE47
:104A3000284608B070BD2DE9F04F8FB00AAC069043
:104A4000DDE91A0984E80C00C368DDF870A0DD0711
:104A50000E4639D44FF0FF330D930DABCDE90393E0
:104A6000029018AB93E803008DE8030008AD94E8CA
:104A70000C0031462846FFF741FE95E803000D9BE8
:104A8000012B84E803000CD803F001038AF80030FE
:104A900094E80300069B83E8030018460FB0BDE8C6
:104AA000F08F01238AF800300423C9F8003018A9D8
:104AB0002046FEF7B1FE0028EAD0D9F8003043F0D6
:104AC0000203C9F80030E3E76C30FDF72FFD036AFD
:104AD0008169B3FA83F3B1FA81F8012583465B0952
:104AE0004FEA581800272E4613B1B8F1000F45D1F0
:104AF00018A920460793FEF78FFE00283FD12046D5
:104B0000FEF777FE079B33B9DBF81C1051F82760DE
:104B1000311A4E424E4156B9B8F1000F0AD0002D5D
:104B200046D18AF8005041E04FF00108DCE7B8F1C7
:104B3000000F06D1DBF8141051F827502A1A5542FD
:104B400055411DB9002B44D1002E40D020460137DD
:104B5000FDF712FD86B1DBF82030BB428CBF00238D
:104B60000123002DE0D0DBF81810B9428CBF4FF0C4
:104B700000084FF00108B7E70123F2E700203EB933
:104B8000BDB900238AF8003080B1062399E7284692
:104B9000DBF82030BB42F3D1002FF1D000238AF89C
:104BA00000307DB1DBF81830BB420BD1042388E71D
:104BB0003046DBF81830BB42E3D1002FE1D00123AF
:104BC0008AF80030002814BF0223002379E730461A
:104BD000D7E7002EDBD18AF80060E7E72DE9F04F38
:104BE0008BB00DF1180A169C049004F16C008AE851
:104BF0000C00FDF79BFCE46804F04A040023402C01
:104C00000646089347D0082C14BF4FF00A084FF00F
:104C1000100814A95046FEF7FFFD814600286ED10A
:104C20005046FEF7E6FDD6F8BC30089083420CBF34
:104C300001230023009303D0D6F8C030834214D15F
:104C4000337C13B1B36A83420FD0736A83420CD0B2
:104C50005046FDF791FC14A9FEF7F1FD0746002828
:104C600057D05046FEF7C5FD089000273D46327CE0
:104C7000089B12B1B26A9A4245D0726A9A4242D0F7
:104C8000D6F8CC209A4210D147B1B8F10A0F0DD115
:104C900044B9254629E04FF00808BAE71CB3B8F13B
:104CA000080F25D0013501270EE0D7B1D6F8C42072
:104CB0009A4203D0D6F8C8209A422ED1D4B1B8F186
:104CC000100F2FD100252F465046FDF755FC14A993
:104CD000FEF7B5FD18B35046FEF78BFD0890002F88
:104CE000C5D1B9460FE0254601274FF00808EBE78C
:104CF0003D46D8E7274625464FF01008E4E7002355
:104D000000931D461F46B8F1100F0CD116230193D6
:104D10000BE04FF001090546F5E70127F3E74FF0F7
:104D20000109F0E70127CDF80480674B0993337C34
:104D30001BB1202109A802F0A5F896F824B14FF67E
:104D4000FF7393FBF8F20292BBF1000F4BD006F118
:104D5000CC0200240392A2460593B9F1000F1BD1A7
:104D6000337C089A002B6BD0B16A8A4268D1A5B116
:104D7000E9B209A802F059F9002506A8FDF7FCFBE5
:104D800014A9FEF75CFD002858D006A8FEF731FDF7
:104D90000890E5E74FF001090023099A52F80C2C1E
:104DA00072B1E9B209A8019302F03FF909AAD6E964
:104DB00002010AF0F1F9019B10B9179904220A6067
:104DC0002DB927B9099A52F80C2C002A5CD0002B77
:104DD0005AD1BAF1000F73D1009B0BB16442A4B257
:104DE000189B1C8056E0DA465C469B46B9F1000FE2
:104DF000D2D108990198FCF719FC431CCCD0029B36
:104E00009C4218D818FB04F4A4B2ABEB00039C42FC
:104E1000C8BF4AF0010A0444A4B2013506A8FDF750
:104E2000ABFB14A9FEF70BFD0028B3D006A8FEF7D4
:104E3000E0FC0890DDE74FF0010AEFE7D9468CE788
:104E4000736A9A42A8D008AA01990398FCF746FC15
:104E5000C0B1039B029AC01A3C284FEAA003C8BF06
:104E6000063B94420CD8059A18FB04F4A4B2D21A5B
:104E70009442C8BF4AF0010A1C44A4B201357CE741
:104E8000DA467AE7034688E70023189A1380179AD0
:104E900004231360B9F1000F05D0179B179A1B6804
:104EA00043F00203136006AB93E80300049B83E81E
:104EB000030009A801F082FE04980BB0BDE8F08F52
:104EC0004FF6FF73E1E700BFD808002070B588B047
:104ED00006AC84E80C00109B04930F9B03930E9B7D
:104EE00002930CAB05460E4693E803008DE80300E1
:104EF000284694E80C003146FFF770FE284608B0BB
:104F000070BD00002DE9F04F8BB00DF1180A169C12
:104F1000059004F16C008AE80C00FDF707FBE768D8
:104F200007F04A070023402F0546089347D0082F73
:104F300014BF4FF00A084FF0100814A95046FEF7AE
:104F40006BFC814600286ED15046FEF752FCD5F826
:104F5000BC30089083420CBF01230023019303D08F
:104F6000D5F8C030834214D12B7C13B1AB6A834295
:104F70000FD06B6A83420CD05046FDF7FDFA14A99E
:104F8000FEF75DFC0646002857D05046FEF731FC80
:104F90000890002634462A7C089B12B1AA6A9A42DD
:104FA00045D06A6A9A4242D0D5F8CC209A4210D1B4
:104FB00046B1B8F10A0F0DD147B93C4629E04FF090
:104FC0000808BAE71FB3B8F1080F25D0013401264D
:104FD0000EE0D6B1D5F8C4209A4203D0D5F8C82047
:104FE0009A422ED1D7B1B8F1100F2FD10024264606
:104FF0005046FDF7C1FA14A9FEF721FC18B350463C
:10500000FEF7F7FB0890002EC5D1B1460FE03C46F5
:1050100001264FF00808EBE73446D8E73E463C4609
:105020004FF01008E4E7002301931C461E46B8F138
:10503000100F0CD1162302930BE04FF00109044628
:10504000F5E70126F3E74FF00109F0E70126CDF877
:105050000880624B09932B7C1BB1202109A801F029
:1050600011FF95F824B14FF0FF33B3FBF8F303932E
:10507000BBF1000F49D005F1CC0300270493BA46D9
:10508000B9F1000F1BD12B7C089A002B66D0A96ABE
:105090008A4263D1A4B1E1B209A801F0C6FF00249D
:1050A00006A8FDF769FA14A9FEF7C9FB002853D03A
:1050B00006A8FEF79EFB0890E5E74FF001090023E4
:1050C000099A52F80C2C72B1E1B209A8029301F0CE
:1050D000ACFF09AAD5E902010AF05EF8029B10B9FB
:1050E000179904220A602CB926B9099A52F80C2C97
:1050F000002A54D0002B52D1BAF1000F6BD1019B82
:1051000003B17F42189B1F604FE0DA465F46B9F15A
:10511000000FD4D108990298FCF788FA431CCED02E
:10512000039B9F4215D807FB08F7C343BB4238BF18
:105130004AF0010A0134074406A8FDF71DFA14A934
:10514000FEF77DFB0028B8D006A8FEF752FB0890BA
:10515000E0E74FF0010AEFE7D94691E76B6A9A4220
:10516000ADD008AA02990498FCF7B8FAA8B1049B3C
:10517000039AC01A3C284FEAA003C8BF063B9742D7
:1051800009D807FB08F7DA43BA4238BF4AF0010AE8
:1051900001341F4484E7DA4682E7034690E70023A0
:1051A000189A1360179A04231360B9F1000F05D001
:1051B000179B179A1B6843F00203136006AB93E832
:1051C0000300059B83E8030009A801F0F7FC05989C
:1051D0000BB0BDE8F08F4FF0FF33E1E7D8080020B7
:1051E00070B588B006AC84E80C00109B04930F9B4C
:1051F00003930E9B02930CAB05460E4693E8030007
:105200008DE80300284694E80C003146FFF77AFE4B
:10521000284608B070BD00002DE9F04F8BB00DF1AD
:10522000180A169C059004F16C008AE80C00FDF742
:105230007DF9E76807F04A070023402F05460893E9
:1052400047D0082F14BF4FF00A084FF0100814A9D8
:105250005046FEF7E1FA814600286ED15046FEF72F
:10526000C8FAD5F8BC30089083420CBF0123002354
:10527000019303D0D5F8C030834214D12B7C13B1F5
:10528000AB6A83420FD06B6A83420CD05046FDF765
:1052900073F914A9FEF7D3FA0646002857D05046F2
:1052A000FEF7A7FA0890002634462A7C089B12B124
:1052B000AA6A9A4245D06A6A9A4242D0D5F8CC206E
:1052C0009A4210D146B1B8F10A0F0DD147B93C4608
:1052D00029E04FF00808BAE71FB3B8F1080F25D04E
:1052E000013401260EE0D6B1D5F8C4209A4203D08D
:1052F000D5F8C8209A422ED1D7B1B8F1100F2FD1CE
:10530000002426465046FDF737F914A9FEF797FA10
:1053100018B35046FEF76DFA0890002EC5D1B1467D
:105320000FE03C4601264FF00808EBE73446D8E78B
:105330003E463C464FF01008E4E7002301931C462C
:105340001E46B8F1100F0CD1162302930BE04FF05C
:1053500001090446F5E70126F3E74FF00109F0E7FC
:105360000126CDF80880624B09932B7C1BB12021CC
:1053700009A801F087FD95F824B14FF0FF33B3FB86
:10538000F8F30393BBF1000F49D005F1CC030027DC
:105390000493BA46B9F1000F1BD12B7C089A002B5D
:1053A00066D0A96A8A4263D1A4B1E1B209A801F02A
:1053B0003CFE002406A8FDF7DFF814A9FEF73FFA2B
:1053C000002853D006A8FEF714FA0890E5E74FF03E
:1053D00001090023099A52F80C2C72B1E1B209A814
:1053E000029301F022FE09AAD5E9020109F0D4FED8
:1053F000029B10B9179904220A602CB926B9099AA0
:1054000052F80C2C002A54D0002B52D1BAF1000FC4
:105410006BD1019B03B17F42189B1F604FE0DA46BE
:105420005F46B9F1000FD4D108990298FCF7FEF855
:10543000431CCED0039B9F4215D807FB08F7C343FC
:10544000BB4238BF4AF0010A0134074406A8FDF701
:1054500093F814A9FEF7F3F90028B8D006A8FEF7D0
:10546000C8F90890E0E74FF0010AEFE7D94691E765
:105470006B6A9A42ADD008AA02990498FCF72EF9FB
:10548000A8B1049B039AC01A3C284FEAA003C8BFE6
:10549000063B974209D807FB08F7DA43BA4238BF00
:1054A0004AF0010A01341F4484E7DA4682E70346E2
:1054B00090E70023189A1360179A04231360B9F138
:1054C000000F05D0179B179A1B6843F00203136067
:1054D00006AB93E80300059B83E8030009A801F0ED
:1054E0006DFB05980BB0BDE8F08F4FF0FF33E1E79F
:1054F000D808002070B588B006AC84E80C00109B7A
:1055000004930F9B03930E9B02930CAB05460E4630
:1055100093E803008DE80300284694E80C00314628
:10552000FFF77AFE284608B070BD2DE9F0418CB037
:1055300008AC149DD5F80C8084E80C0028F04A03D0
:1055400043F00803EB600BAB0493159BCDE90253CA
:1055500012AB06468C4693E803008DE8030006AFC5
:1055600094E80C0061463846FFF756FE97E80300C2
:10557000169B0B9AC5F80C8084E8030086E80300AC
:1055800030461A600CB0BDE8F08100002DE9F04F04
:1055900091B00DF1300A1C9C0B9004F16C008AE86C
:1055A0000C00FCF7C3FF00230E93E36803F04A09E5
:1055B000B9F1400F05464AD0B9F1080F14BF4FF0BA
:1055C0000A084FF010081AA95046FEF725F90746B9
:1055D000002874D15046FEF70CF9D5F8BC300E9077
:1055E00083420CBF01230023069303D0D5F8C030BB
:1055F000834214D12B7C13B1AB6A83420FD06B6A08
:1056000083420CD05046FCF7B7FF1AA9FEF717F9F2
:10561000064600285DD05046FEF7EBF80E900026B7
:1056200034462A7C0E9B12B1AA6A9A424BD06A6A0F
:105630009A4248D0D5F8CC209A4214D156B1B8F14C
:105640000A0F11D1B9F1000F0AD14C462DE04FF0ED
:105650000808B8E7B9F1000F25D0B8F1080F27D036
:105660000134012610E0E6B1D5F8C4209A4203D0F7
:10567000D5F8C8209A422FD1B9F1000F1AD0B8F14D
:10568000100F2DD1002426465046FCF775FF1AA9AD
:10569000FEF7D5F810B35046FEF7ABF80E90002E8B
:1056A000BFD137460FE04C4601264FF00808EBE724
:1056B0003446D6E74E464C464FF01008E4E7002348
:1056C00006931C461E46B8F1100F0AD11623079305
:1056D00009E001270446F6E70126F4E70127F2E78F
:1056E0000126CDF81C80924B0F932B7C1BB12021FF
:1056F0000FA801F0C7FB069B002B39D000224FF00A
:105700000043CDE904234246D317DDE90401CDE986
:10571000022314F029F995F82491CDE90801B9F193
:10572000000F5DD005F1CC030A9300220023CDE9E0
:1057300000234FF000080FBB2B7C0E9A002B00F0CB
:105740009480A96A8A4240F09080C4B1E1B20FA867
:1057500001F06BFC00240CA8FCF70EFF1AA9FEF761
:105760006EF800287FD00CA8FEF743F80E90E3E710
:105770004FF0FF326FF00043C3E7012700230F9A79
:1057800052F80C2C72B1E1B20FA8029301F04DFC5B
:105790000FAAD5E9020109F0FFFC029B10B91D997F
:1057A00004220A6034B92EB90F9A52F80C2C002A40
:1057B00000F09680002B40F09380B8F1000F40F08D
:1057C000AB80069B33B1DDE900345B4264EB4404FB
:1057D000CDE90034DDE900121E9BC3E9001287E029
:1057E00000220023C846CDE90023002FC6D10E9920
:1057F0000798FBF71BFF431CC0D0DDE90823DDE958
:10580000009A534508BF4A452AD3DDE90123009990
:105810005343039A01FB0233029AA2FB01AB9B4460
:10582000DDE90423C117121A63EB01035B4508BFCE
:10583000524538BF48F001081AEB00024BEB010358
:10584000CDE9002301340CA8FCF796FE1AA9FDF758
:10585000F6FF002891D00CA8FDF7CBFF0E90C6E70D
:105860004FF00108EFE74F4665E76B6A9A4285D033
:105870000EAA07990A98FBF731FF78B30A9BC31A5F
:105880003C2B4FEAA300DDE900ABDDE90823C8BFEC
:1058900006385B4508BF52451ED3DDE90123009958
:1058A0005343039A01FB0233029AA2FB01AB9B44D0
:1058B000DDE90423C117121A63EB01035B4508BF3E
:1058C000524538BF48F001081AEB00024BEB0103C8
:1058D000CDE9002301343EE7C8463CE703464EE7E6
:1058E000002200231E99C1E900231D9A042313609E
:1058F0002FB11D9B1D9A1B6843F0020313600CAB74
:1059000093E803000B9B83E803000FA801F056F90E
:105910000B9811B0BDE8F08F069B1BB100224FF031
:105920000043DFE74FF0FF326FF00043DAE700BFDC
:10593000D808002070B588B006AC84E80C00109B35
:1059400004930F9B03930E9B02930CAB05460E46EC
:1059500093E803008DE80300284694E80C003146E4
:10596000FFF714FE284608B070BD00002DE9F04F87
:105970008DB00DF1200A189C079004F16C008AE8A4
:105980000C00FCF7D3FD00230A93E36803F04A09F7
:10599000B9F1400F05464AD0B9F1080F14BF4FF0D6
:1059A0000A084FF0100816A95046FDF735FF0746C4
:1059B000002874D15046FDF71CFFD5F8BC300A9082
:1059C00083420CBF01230023029303D0D5F8C030DB
:1059D000834214D12B7C13B1AB6A83420FD06B6A24
:1059E00083420CD05046FCF7C7FD16A9FDF727FFF0
:1059F000064600285DD05046FDF7FBFE0A900026C3
:105A000034462A7C0A9B12B1AA6A9A424BD06A6A2F
:105A10009A4248D0D5F8CC209A4214D156B1B8F168
:105A20000A0F11D1B9F1000F0AD14C462DE04FF009
:105A30000808B8E7B9F1000F25D0B8F1080F27D052
:105A40000134012610E0E6B1D5F8C4209A4203D013
:105A5000D5F8C8209A422FD1B9F1000F1AD0B8F169
:105A6000100F2DD1002426465046FCF785FD16A9BF
:105A7000FDF7E5FE10B35046FDF7BBFE0A90002E81
:105A8000BFD137460FE04C4601264FF00808EBE740
:105A90003446D6E74E464C464FF01008E4E7002364
:105AA00002931C461E46B8F1100F0AD11623039329
:105AB00009E001270446F6E70126F4E70127F2E7AB
:105AC0000126CDF80C80844B0B932B7C1BB120213D
:105AD0000BA801F0D7F94246D3174FF0FF304FF033
