:020000040800F2
:1000000000000520F9000008210100082101000876
:100010002101000821010008210100080000000062
:1000200000000000000000000000000021010008A6
:100030002101000800000000210100082101000842
:100040002101000810B5054C237833B9044B13B1D6
:100050000448AFF300800123237010BDE8020020A4
:1000600000000000E060020808B5034B1BB1034923
:100070000348AFF3008008BD00000000EC02002040
:10008000E0600208154B002B08BF134B9D46A3F5FB
:10009000803A00218B460F461348144A121A1AF070
:1000A00035FB0F4B002B00D098470E4B002B00D098
:1000B00098470020002104000D000D48002802D0C0
:1000C0000C48AFF300801AF0F9F82000290000F086
:1000D000B9FA19F08DFC00BF0000080000000520EF
:1000E0000000000000000000E80200206419002069
:1000F00000000000000000000649074A074B9A4232
:10010000BEBF51F8040B42F8040BF8E700F050F8BA
:10011000FFF7B8FFEC60020800000020E8020020B2
:10012000FEE700BF80B586B000AFF860B9607A60C6
:1001300000237B617B685A1E7A60002B14BF012369
:100140000023DBB2002B0BD0BB685A1CBA6093F9BA
:100150000030184600F020FA7B6901337B61E9E743
:100160007B6918461837BD4680BD90B587B000AF93
:10017000F860B9607A6000237B617B685A1E7A6000
:10018000002B14BF01230023DBB2002B0AD0BC6874
:10019000631CBB6000F0E8F9034623707B69013300
:1001A0007B61EAE77B6918461C37BD4690BD0000BD
:1001B00080B400AF084BD3F88830074A43F470038B
:1001C000C2F88830BFF34F8FBFF36F8F00BFBD46BB
:1001D0005DF8047B704700BF00ED00E080B500AF24
:1001E0004FF4E13000F080F900BF80BD80B483B0EF
:1001F00000AF78607B68474A93425AD07B68454A93
:10020000934219D87B68444A93423DD07B68424A66
:10021000934208D87B68414A934227D07B68404A82
:1002200093422AD06FE07B683E4A934233D07B688A
:100230003D4A934236D066E07B683C4A93424DD0BB
:100240007B683A4A934208D87B68394A934237D050
:100250007B68384A93423AD055E07B68364A9342ED
:1002600043D07B68354A934246D04CE0344B1B6BFD
:10027000334A43F00103136345E0314B1B6B304AB3
:1002800043F0020313633EE02D4B1B6B2C4A43F0FB
:100290000403136337E02A4B1B6B294A43F008031E
:1002A000136330E0264B1B6B254A43F010031363A6
:1002B00029E0234B1B6B224A43F02003136322E007
:1002C0001F4B1B6B1E4A43F0400313631BE01C4B88
:1002D0001B6B1B4A43F08003136314E0184B1B6B2A
:1002E000174A43F4807313630DE0154B1B6B144ADC
:1002F00043F40073136306E0114B1B6B104A43F485
:100300008063136300BF00BF0C37BD465DF8047BFC
:10031000704700BF00140240000802400000024085
:1003200000040240000C0240001002400020024085
:1003300000180240001C0240002402400028024035
:100340000038024080B584B000AF7860084611469E
:100350001A460346FB700B46BB7013467B707868E9
:10036000FFF744FF7B68FB60FB681B68FA7852006C
:10037000032101FA02F2D2431A40FB681A60FB68BB
:100380001B687978FA78520001FA02F21A43FB6886
:100390001A60FB685B68FA78012101FA02F2D24325
:1003A0001A40FB685A60FB685B68397EFA7801FA8C
:1003B00002F21A43FB685A60FB689B68FA785200A5
:1003C000032101FA02F2D2431A40FB689A60FB68EB
:1003D0009B68397FFA78520001FA02F21A43FB68EF
:1003E0009A60FB68DB68FA785200032101FA02F296
:1003F000D2431A40FB68DA60FB68DB6897F820108C
:10040000FA78520001FA02F21A43FB68DA60FB78CC
:10041000072B8CBF01230023DBB21A46FB6808328E
:1004200053F82230F978FA78072A01D8002200E040
:1004300008228A1A92000F2101FA02F2D2431146D1
:10044000FA78072A8CBF01220022D2B21940FB6839
:10045000083243F82210FB78072B8CBF01230023BE
:10046000DBB21A46FB68083253F82230B978F878C4
:10047000FA78072A01D8002200E00822821A9200A6
:1004800001FA02F21146FA78072A8CBF01220022F3
:10049000D2B21943FB68083243F8221000BF10376C
:1004A000BD4680BD80B485B000AF78600B46FB7060
:1004B0001346BB707B68FB60BB78002B05D0FB78D4
:1004C000012202FA03F31A4605E0FB78012202FA40
:1004D00003F31B041A46FB689A6100BF1437BD463C
:1004E0005DF8047B7047000080B586B004AF78608B
:1004F000194B5B6C184A43F010035364BFF34F8FE2
:100500000023029303230193002300930223072275
:1005100009211248FFF716FF0023029303230193DA
:10052000002300930223072207210D48FFF70AFF4B
:100530007B685B0803F5740303F5105309497A6877
:10054000B3FBF2F3CB60074B0D221A600123184670
:100550000837BD4680BD00BF0038024000000240A1
:10056000000402400010014080B400AF094BDB6979
:1005700003F02003002B0CBF01230023DBB2002B70
:1005800000D0F3E7034B5B6A5BB21846BD465DF8EB
:10059000047B70470010014080B483B000AF034675
:1005A000FB710B4BDB6903F08003002B0CBF0123B5
:1005B0000023DBB2002B00D0F3E7054A97F90730A0
:1005C000936200BF0C37BD465DF8047B704700BFE7
:1005D0000010014080B582B000AF78607B680A22CD
:1005E0001A607B68074A5A600749084807F055F8BF
:1005F00003460749184606F0EDFE7B6818460837A3
:10060000BD4680BDC3F54840181D0208A80500205E
:10061000B974000880B582B000AF78600649074819
:1006200007F03BF803460649184606F0D3FE7B6800
:1006300018460837BD4680BD281D0208A8050020C1
:10064000B974000890B58BB004AFFFF7C7FD304B0D
:100650001B68002B04D12E4B1B6801332C4A1360FE
:100660002C492D4807F019F803462C49184606F086
:10067000B1FE082000F082F803461C462046FFF732
:10068000A9FF7C617B691B685A1C7B691A607B69C6
:10069000D3ED017A77EEA77A7B69C3ED017A7C69A5
:1006A000002C05D02046FFF7B5FF204600F076F875
:1006B0003B1D0E22002118461AF028F8184916484A
:1006C00006F0EBFF03461549184606F083FE0023AB
:1006D00002930323019300230093012300220121AD
:1006E0001048FFF72FFE012201210E48FFF7DAFE26
:1006F000002201210B48FFF7D5FE0B49064806F002
:10070000CCFF03460549184606F064FEFEE700BF2D
:1007100008030020381D0208A8050020B97400084D
:10072000401D020800200240581D020880B582B01A
:1007300000AF786039607B68012B0CD13B684FF6C5
:10074000FF72934207D1064800F038F8054A06497F
:10075000034800F02DF800BF0837BD4680BD00BF3C
:100760000403002000000020D508000880B500AF79
:100770004FF6FF710120FFF7D9FF80BD10B5041EB1
:1007800008BF0124204619F0EDFE30B900F008F84A
:1007900008B919F0D1F88047F4E710BD19F0EABEA6
:1007A000024B1868BFF35B8F704700BF0C0300203B
:1007B0000B460146184619F007B900002DE9F84329
:1007C000334D2B685A1C07462A60002B5CD1314CF4
:1007D000314B3248DFF8F080DFF8F090304E0122E4
:1007E0001A702368996806F047FD23682D485968F8
:1007F00006F042FD23682C48D96806F03DFD2749E4
:10080000404606F0B5FD2749484608F049F8264914
:10081000304606F0ADFD2449244806F0A9FD3369B1
:10082000C6F8748043F40053336123682048996804
:10083000C9F8788006F030FD23681E4859681E4EBE
:10084000DFF88C8006F028FD23681C48D9681C4C12
:1008500006F022FD1649304606F05AFE154940467C
:1008600008F068F81549204606F052FE134915486D
:1008700006F04EFE2369C8F8786043F40053236104
:100880002B68666701332B603846BDE8F88300BFEC
:1008900000090020900000200C00002060030020D0
:1008A0009004002010030020380300201C050020C5
:1008B000D803002088030020E8070020B0030020B0
:1008C000C806002058070020A805002000040020CA
:1008D000340600200D4A1368591E022B10B5044639
:1008E000116011D10A4806F076FD0A4806F073FD42
:1008F000094806F070FD094806F03CFE084806F07D
:1009000039FE084806F036FE204610BD00090020DA
:10091000A8050020900400201C050020E807002006
:10092000C80600205807002010B5034B036004469A
:1009300008F0A2F8204610BD7C1D020810B5034B3C
:100940000360044608F098F8204610BD8C1D02088C
:1009500010B50446FFF7E8FF2046FFF71FFF2046CB
:1009600010BD10B50446FFF7E9FF2046FFF716FF5C
:10097000204610BD08B5836F0BB941F00101036932
:100980004161194202D0024800F07EFA08BD00BF62
:10099000941D020808B543691943FFF7EBFF08BD32
:1009A00070B5C46F0D460CB907F0FFFF237F4BB93C
:1009B000204607F068FA2368294620469B69BDE86F
:1009C000704018470C44607F70BD90F8753010B5CA
:1009D00004463BB92021FFF7E3FF012384F87400AC
:1009E00084F8753094F8740010BD000010B504460A
:1009F00008F002F8054B236000232367A4F8743045
:100A0000C4E91E33C4E92033204610BD7C1D020812
:100A100038B5044608460D4609F0A4F810B128463A
:100A200008F036FEE067284609F0BAF810B128460B
:100A300008F0E6FEC4F88000284609F0CFF810B1AF
:100A4000284608F0FBFEC4F8840038BD38B50446DB
:100A50000D460EF0CEFF04F16C012046FFF7D8FFE3
:100A6000A567B5FA85F500236D092367A4F87430EE
:100A70002361656138BD000008B5C36F0BB941F053
:100A8000010103694161194202D0024800F0FCF9FA
:100A900008BD00BF941D020808B543691943FFF75C
:100AA000EBFF08BD10B5044607F0A6FF064B236018
:100AB0000023C4E91C3384F87830C4E91F33C4E947
:100AC0002133204610BD00BF8C1D020838B50446F6
:100AD00008460D4601F0A4F810B1284600F0CEFFFC
:100AE000C4F88000284601F0B9F810B1284601F09A
:100AF00001F8C4F88400284601F0CEF810B1284669
:100B000001F016F8C4F8880038BD38B504460D4623
:100B10000EF06FFF04F16C012046FFF7D7FFE56789
:100B2000B5FA85F500236D09636784F8783023678B
:100B30002361656138BD7047704730B500224FF0C2
:100B4000FF344FF0FF35C0E90045C0E9022230BD57
:100B500082B08DE80C004FF0FF334FF0FF32C0E958
:100B600000230023C0E9023302B070470020704721
:100B7000002070474FF0FF307047036810B55B6A84
:100B800004469847431C1EBFA36813F8010BA360DB
:100B900010BD4FF0FF3070474FF0FF307047704787
:100BA000704730B500224FF0FF344FF0FF35C0E9F9
:100BB0000045C0E9022230BD82B08DE80C004FF044
:100BC000FF334FF0FF32C0E900230023C0E90233B6
:100BD00002B0704700207047002070474FF0FF3090
:100BE0007047036810B55B6A04469847431C1EBFF4
:100BF000A36853F8040BA36010BD4FF0FF3070479B
:100C00004FF0FF307047000010B5044B044640F829
:100C10001C3B0FF03BF8204610BD00BF0C1E020825
:100C200010B5044B044640F81C3B0FF02FF820464B
:100C300010BD00BF4C1E020810B50446FFF7E4FFCC
:100C40002046FFF7ABFD204610BD10B50446FFF768
:100C5000E7FF2046FFF7A2FD204610BD2DE9F04139
:100C600006460D469046002444451DDAD6E90507A0
:100C70003B1A0FD0A8EB04079F42A8BF1F463A4675
:100C8000294619F01BFD73693C443D44A0451F44AF
:100C90007761E9DD336829785B6B3046984701302E
:100CA00002D001340135DFE72046BDE8F0812DE9AF
:100CB000F04107460E4690460025454520DAD7E923
:100CC0000504844212D0241AA410A8EB05039C4208
:100CD000A8BF1C46224631461DF093F87B69254487
:100CE000A4002644A8451C447C61E6DD3B683168CD
:100CF0005B6B38469847013002D001350436DCE79B
:100D00002846BDE8F0812DE9F04107460C469046A3
:100D1000002646451DDAD7E902156B1A0FD0A8EB5D
:100D200006059D42A8BF1D462A46204619F0C6FC6E
:100D3000BB682E442C44B0451D44BD60E9DD3B68D2
:100D400038469B6A9847431C03D004F8010B0136D0
:100D5000DFE73046BDE8F0812DE9F04107460D465A
:100D600090460026464520DAD7E902148C4212D07C
:100D7000641AA410A8EB06039C42A8BF1C46224696
:100D800028461DF03EF8BB682644A4002544B04523
:100D90001C44BC60E6DD3B6838469B6A9847431CB0
:100DA00003D045F8040B0136DCE73046BDE8F0819E
:100DB00003689B691847D0E902318B42024602D38F
:100DC00003689B6A184713F8010B93607047D0E9DA
:100DD00002218A4202D303685B6A18471078704781
:100DE00030B4D0E90525AA4203D3036830BC5B6B5D
:100DF0001847117042690132426130BC08467047A1
:100E000003681B6B1847000010B5074B03600023F5
:100E10000446C0E90133C0E90333C0E905331C309F
:100E20000EF0B6FA204610BD0C1E020803689B693E
:100E30001847D0E902318B42024602D303689B6A0D
:100E4000184753F8040B93607047D0E902218A4297
:100E500002D303685B6A18471068704703681B6B0E
:100E60001847000010B5074B036000230446C0E993
:100E70000133C0E90333C0E905331C300EF088FAB2
:100E8000204610BD4C1E020808B518F055FD8368B9
:100E9000586970478368986970478368586B7047D2
:100EA00083689B6B0020DAB262F30700C3F307226A
:100EB00062F30F20C3F3074262F317401B0E82B0A8
:100EC00063F31F6002B070478368DB6B0020DAB207
:100ED00062F30700C3F3072262F30F20C3F3074254
:100EE00062F317401B0E82B063F31F6002B07047BD
:100EF0008368586970478368986970478368586B3E
:100F0000704783689B6B0020DAB262F30700C3F37B
:100F1000072262F30F20C3F3074262F317401B0E50
:100F200082B063F31F6002B070478368DB6B002000
:100F3000DAB262F30700C3F3072262F30F20C3F3B0
:100F4000074262F317401B0E82B063F31F6002B0CA
:100F500070478368586A70478368986A70470020B2
:100F600070470020704770470020914204D251F82A
:100F7000043B03EB7060F8E77047000010B50D4BC1
:100F8000036090F86C3004467BB1806808B10DF0C6
:100F900044FBE06908B10DF040FB606A08B10DF058
:100FA0003CFBE06A08B10DF038FB20460EF0FEFD78
:100FB000204610BD9421020810B50D4B036090F837
:100FC0006C3004467BB1806808B10DF026FBE06907
:100FD00008B10DF022FB606A08B10DF01EFBE06A5B
:100FE00008B10DF01AFB20460EF0E0FD204610BDC2
:100FF000A421020810B5034B036004460EF0D6FD91
:10100000204610BD2821020810B5034B036004469A
:101010000EF0CCFD204610BD402102080B4B10B550
:10102000036090F8243104465BB1806808B10DF08C
:10103000F4FA606908B10DF0F0FAE06908B10DF05A
:10104000ECFA20460EF0B2FD204610BDB421020895
:1010500010B5034B036004460EF0A8FD204610BDFA
:10106000EC1F020810B5034B036004460EF09EFD12
:10107000204610BD2820020810B5034B036004462B
:101080000EF094FD204610BD5820020810B5034B09
:10109000036004460EF08AFD204610BD5821020868
:1010A00010B5034B036004460EF080FD204610BDD2
:1010B0006C21020810B50446FFF760FF2046FFF7D9
:1010C0006DFB204610BD10B50446FFF775FF2046A6
:1010D000FFF764FB204610BD10B50446FFF78AFFFA
:1010E0002046FFF75BFB204610BD10B50446FFF716
:1010F0008BFF2046FFF752FB204610BD10B504467B
:10110000FFF78CFF2046FFF749FB204610BD10B5C6
:101110000446FFF79DFF2046FFF740FB204610BD29
:1011200010B50446FFF79EFF2046FFF737FB204629
:1011300010BD10B50446FFF79FFF2046FFF72EFBBA
:10114000204610BD10B50446FFF7A0FF2046FFF76C
:1011500025FB204610BD10B50446FFF7A1FF204631
:10116000FFF71CFB204610BD13B58B6801AA9968D8
:10117000044605F013FF204602B010BD13B58B687E
:1011800001AA9968044605F009FF204602B010BD87
:1011900013B58B6801AA9968044605F0FFFE204646
:1011A00002B010BD13B58B6801AAD969044606F0D8
:1011B000EDFD204602B010BD13B58B6801AA596A37
:1011C000044606F0E3FD204602B010BD13B58B685F
:1011D00001AAD96A044606F0D9FD204602B010BD26
:1011E00013B58B6801AAD969044606F0CFFD2046E5
:1011F00002B010BD13B58B6801AA596A044606F007
:10120000C5FD204602B010BD13B58B6801AAD96A8E
:10121000044606F0BBFD204602B010BD13B58B6836
:1012200001AA5969044606F0B1FD204602B010BD7E
:1012300013B58B6801AAD969044606F0A7FD2046BC
:1012400002B010BD10B5054B044640F8083B0FF046
:101250009FF920460EF0AAFC204610BDE0200208AF
:1012600010B50446FFF7EEFF2046FFF797FA204639
:1012700010BD000010B5054B044640F8083B0FF0C8
:1012800087F920460EF092FC204610BD6C1F020824
:1012900010B50446FFF7EEFF2046FFF77FFA204621
:1012A00010BD000038B50D4B0360056904460EF013
:1012B000A1FC854203D015B128460DF0AEF9A06817
:1012C00010B103685B68984704F10C000FF060F9F7
:1012D00020460EF06BFC204638BD00BF6820020897
:1012E00010B50446FFF7DEFF2046FFF757FA204609
:1012F00010BD2DE9F04385B01C46814603AB02A822
:1013000006F05AFD01AB21460C9A03A806F054FDE5
:10131000029D039C55F80C3C54F80C7C05EB8308AB
:1013200004EB87072246294648460EF006FA064691
:1013300078B928461CF0E4FB05EB800520461CF03C
:10134000DFFBA84504EB80040DD13E1B18BF4FF016
:10135000FF3603A806F0B4FA02A806F0B1FA304648
:1013600005B0BDE8F083A74202D004350434D9E7C4
:101370000126EEE72DE9F34715461C46284B03608E
:1013800022466B460746894601A8294606F014FD09
:10139000019EDFF890A056F80C3C641B06EB830816
:1013A000204B64109C4294BFA0004FF0FF300DF022
:1013B00074FB054623463246294648460EF0C8F9D6
:1013C000844211D8441C28460DF027F9544594BF97
:1013D000A0004FF0FF300DF060FB234605460146AC
:1013E000324648460EF0B4F902462946384606F021
:1013F000E9FB30461CF084FB06EB8006B04505D0C7
:1014000000213846043606F066FCD3E728460DF086
:1014100004F901A806F054FA384602B0BDE8F08796
:10142000F4080020FEFFFF1F0A2807D82F2917D92C
:101430003030814214D2A1F130007047A1F1300068
:1014400009280FD9A1F16103052B02D8A1F157009A
:101450007047A1F14103052B02D8A1F13700704775
:101460004FF0FF307047000008B42DE9F7410F46F8
:1014700004200021904619F003F81649054619F09A
:10148000CCFB28B328461AF039FB461C30460DF039
:1014900004FB29463246044619F010F90D49042090
:1014A00018F0EEFF0AAB099A0193414638461BF04B
:1014B0000BFD054634B12146042018F0E1FF20461B
:1014C0000DF0ABF8284603B0BDE8F04101B070471D
:1014D0000446E7E7DA21020813460A4611B1196803
:1014E0001CF080BC084670470AB11CF08ABC7047EB
:1014F00013460A4611B119461CF089BC704700001A
:1015000000310B4A026018BF012100224160C0E98E
:1015100002220274C0E90522C0E90722C0E90922BB
:10152000C0E90B22C0E90D22C26380F86C2070472D
:101530009421020800310B4A026018BF01210022E9
:101540004160C0E902220274C0E90522C0E9072215
:10155000C0E90922C0E90B22C0E90D22C26380F86C
:101560006C207047A421020810B5003218BF012278
:101570004260054B036000220446816011460EF074
:1015800047F8204610BD00BFAC20020803689B68E6
:1015900018470368DB68184710B50B6804461B69D9
:1015A0009847204610BD10B50B6804465B69984704
:1015B000204610BD10B50B6804469B69984720462D
:1015C00010BD10B50B680446DB699847204610BD76
:1015D00003681B6A184703685B6A82B002B0184749
:1015E00003689B6A82B002B01847000010B5003251
:1015F00018BF01224260054B03600022044681604F
:1016000011460DF0B3FF204610BD00BF7820020840
:1016100003689B6818470368DB68184710B50B68B8
:1016200004461B699847204610BD10B50B68044658
:101630005B699847204610BD10B50B6804469B694E
:101640009847204610BD10B50B680446DB699847E3
:10165000204610BD03681B6A184703685B6A82B0A6
:1016600002B0184703689B6A82B002B01847F0B511
:1016700089B006AC84E80C00139A0B680592129AA4
:101680000492119A03929DF8402002920EAA0546F8
:101690000E4692E803008DE8030028469F68314615
:1016A00094E80C00B847284609B0F0BDF0B589B001
:1016B00006AC84E80C00139A0B680592129A049207
:1016C000119A03929DF8402002920EAA05460E46FA
:1016D00092E803008DE803002846DF68314694E86D
:1016E0000C00B847284609B0F0BD70B586B004AC10
:1016F00084E80C000C9A02920B9A01920B689DF8F8
:10170000282000929E6894E80C000546B0472846C1
:1017100006B070BD70B586B004AC84E80C000D9ABC
:1017200003920C9A02920B9A01920B689DF8282062
:101730000092DE6894E80C000546B047284606B0E3
:1017400070BD00000031094A026018BF012100226B
:101750004160C0E902220274C0E90522C0E9072203
:10176000C0E9092280F82421704700BFB421020893
:1017700010B5003218BF0122044B426004460360DA
:10178000816000210EF058F8204610BDC81F0208E5
:1017900003689B6818470368DB68184710B50B6837
:1017A00004461B699847204610BD10B50B680446D7
:1017B0005B699847204610BD10B50B6804469B69CD
:1017C0009847204610BD0000003218BF0122074B89
:1017D00010B542600360816004460EF00BFA0021F0
:1017E000206120460EF0C4FC204610BD682002088F
:1017F00083689A680A60DB684B60704783681A697F
:101800000A605B694B60704783689A690A60DB69AC
:101810004B6070478368DA6A0A601A6B4A605A6BD9
:101820008A609A6BCA60DA6B0A611A6C4A615B6CF7
:101830008B61704783689A6C0A60DA6C4A601A6D33
:101840008A605A6DCA609A6D0A61DA6D4A611B6ED0
:101850008B61704783685A6E0A609A6E4A60DA6ECE
:101860008A601A6FCA605A6F0A619A6F4A61DA6FAA
:101870008A61D3F88020CA61D3F884200A62D3F841
:1018800088204A62D3F88C208A62D3F89030CB62E9
:1018900070478368D3F894200A60D3F898204A6090
:1018A000D3F89C208A60D3F8A020CA60D3F8A42083
:1018B0000A61D3F8A8204A61D3F8AC208A61D3F832
:1018C000B020CA61D3F8B4200A62D3F8B8204A62C3
:1018D000D3F8BC208A62D3F8C030CB62704703686B
:1018E0009B681847F0B589B006AC84E80C00129AE2
:1018F0000B680492119A0392109A02920EAA05465E
:101900000E4692E803008DE803002846DF68314662
:1019100094E80C00B847284609B0F0BDF0B589B08E
:1019200006AC84E80C00129A0B680492119A039298
:10193000109A02920EAA05460E4692E803008DE820
:10194000030028461F69314694E80C00B847284632
:1019500009B0F0BDF0B589B006AC84E80C00129A6D
:101960000B680492119A0392109A02920EAA0546ED
:101970000E4692E803008DE8030028465F69314671
:1019800094E80C00B847284609B0F0BDF0B589B01E
:1019900006AC84E80C00129A0B680492119A039228
:1019A000109A02920EAA05460E4692E803008DE8B0
:1019B000030028469F69314694E80C00B847284642
:1019C00009B0F0BDF0B589B006AC84E80C00129AFD
:1019D0000B680492119A0392109A02920EAA05467D
:1019E0000E4692E803008DE803002846DF69314681
:1019F00094E80C00B847284609B0F0BD003110B596
:101A000018BF0121044B4160036004460EF0E8F862
:101A1000A060204610BD00BFE020020803689B685C
:101A2000184773B5079E01960D68069E0096ED68EF
:101A30000446A847204602B070BD03681B691847DA
:101A4000003110B518BF0121044B4160036004460A
:101A50000EF0C6F8A060204610BD00BF6C1F020843
:101A600010B40468A468A4465DF8044B604738B518
:101A70000D680446ED68A847204638BD10B50446F9
:101A80000A480EF019F92368D3E90123834202D9E9
:101A900052F8200008B906F088FF0023044A0549DF
:101AA0000CF059FD08B90CF0B5FD10BDFC08002084
:101AB000A02802085834020810B504460A480EF05F
:101AC000FBF82368D3E90123834202D952F82000AE
:101AD00008B906F06AFF0023044A05490CF03BFDF3
:101AE00008B90CF097FD10BDC4080020DC220208E4
:101AF0005834020810B504460A480EF0DDF8236891
:101B0000D3E90123834202D952F8200008B906F034
:101B10004CFF0023044A05490CF01DFD08B90CF0E8
:101B200079FD10BDBC080020B0220208583402081C
:101B300010B504460A480EF0BFF82368D3E9012324
:101B4000834202D952F8200008B906F02EFF002384
:101B5000044A05490CF0FFFC08B90CF05BFD10BD10
:101B6000C0080020A42202085834020810B5044618
:101B70000A480EF0A1F82368D3E90123834202D971
:101B800052F8200008B906F010FF0023044A054966
:101B90000CF0E1FC08B90CF03DFD10BDD0080020B0
:101BA000FC2102085834020810B504460A480EF019
:101BB00083F82368D3E90123834202D952F8200035
:101BC00008B906F0F2FE0023044A05490CF0C3FCF4
:101BD00008B90CF01FFD10BDD4080020DC2102085C
:101BE0005834020810B504460A480EF065F8236818
:101BF000D3E90123834202D952F8200008B906F044
:101C0000D4FE0023044A05490CF0A5FC08B90CF0E9
:101C100001FD10BDB80800201C220208583402083B
:101C200010B504460A480EF047F823689A688242C5
:101C30000CD95B6853F8200038B10023054A0649E7
:101C40000CF089FC003018BF012010BD0020FCE71B
:101C5000FC080020A02802085834020810B50446E9
:101C60000A480EF029F823689A6882420CD95B680A
:101C700053F8200038B10023054A06490CF06BFCEC
:101C8000003018BF012010BD0020FCE7BC08002078
:101C9000B02202085834020810B504460A480EF073
:101CA0000BF823689A6882420CD95B6853F82000CD
:101CB00038B10023054A06490CF04DFC003018BF2E
:101CC000012010BD0020FCE7C0080020A42202086B
:101CD000583402082DE9F043DDE907740026B446C4
:101CE000013B12F80CE0A4EB0708BEEBA80F02EBD7
:101CF0000C0504DA4FFA8EF9B9F1000F09DCA0F1F6
:101D0000040C3B46A3420CD053F8047B4CF8047FF0
:101D1000F8E76345A4EB8E048CBF0CF1010C01368F
:101D2000DFE7404416F1FF360FD301602B789B00AC
:101D3000074604EB030E744502D104331844F1E75F
:101D400054F804CB47F804CFF5E7954210D0016072
:101D500015F8013D9B00064604EB030C644502D1D7
:101D600004331844F1E754F8047B46F8047FF5E7A0
:101D7000BDE8F083F7B5DDE9087408461946DDE9EA
:101D80000A36C7B1FD1AAD1003EB850CCDE9003C56
:101D9000134602462046FFF79DFF041BA4103FB1E7
:101DA00032683946521BFFF79FFB33685D1B2C449A
:101DB000346003B0F0BD3568E6E773B5099DDDE931
:101DC00007401E462B6800EB8303CDE90003134652
:101DD00020460A463146FFF77DFF001B8010286031
:101DE00002B070BD70B59DF8104074B103460A266C
:101DF000B1FBF6F506FB15140434092952F824400A
:101E000043F8044D0FD92946F2E703F04A04402C69
:101E10000CD1034601F007040434C90852F82440E9
:101E200043F8044DF6D1C01A801070BD13F4804FF2
:101E300014BF14250425034601F00F042C4409099E
:101E400052F8244043F8044DF6D1ECE72DE9F04177
:101E500014469DF820201D460746DDE90683C2B1E1
:101E600006460A2200232046294617F0E3FB0432E7
:101E7000204658F8223046F8043D0A22002329461D
:101E800017F0D8FB002D08BF0A2C17D304460D46C7
:101E9000E7E703F04A02402A14D1064604F007039C
:101EA0000433EA0858F8233046F8043DE30843EACF
:101EB00045731C46154654EA0503EFD1B81B801044
:101EC000BDE8F08113F4804F14BF142104210646AD
:101ED00004F00F030B442A0958F8233046F8043D58
:101EE000230943EA05731C46154654EA0503EFD15E
:101EF000E4E710B40468E46AA4465DF8044B604764
:101F00002DE9FF47044608460F46FFF74DFE0546FC
:101F1000FFF73CFB60612846FFF73BFBA0612846CA
:101F2000FFF756FB294660636846FFF735FB009BC9
:101F300053F80C0CE0600CF0B0FD0023014606469F
:101F4000E268684604F0EEFCE3682BB196F90030D5
:101F5000002BD4BF002301232946237401A8FFF7D7
:101F600022FB019B53F80C0C344B2062984294BF27
:101F700080004FF0FF300CF090FD226A8046002375
:101F8000014601A805F0FCFB294602A8FFF712FB59
:101F9000029B53F80C0C294BA062984294BF80001E
:101FA0004FF0FF300CF079FDA26A81460023014614
:101FB00002A805F0E5FB294603A8FFF702FB039BF7
:101FC00053F80C0C1D4B2063984294BF80004FF0D7
:101FD000FF300CF062FD226B01460023824603A80D
:101FE00005F0CEFB2846FFF7F6FAA0632846FFF778
:101FF000F7FAE0633846FFF741FD114B196804F129
:10200000400301F10B02FFF774FF012384F86C30E9
:10201000A660C4F81C80C4F82490C4F82CA003A8BF
:1020200005F04EFC02A805F04BFC01A805F048FCA9
:10203000684604F021FD04B0BDE8F087FEFFFF1FF5
:10204000180000202DE9FF47044608460F46FFF719
:102050008DFD0546FFF7DCFA60612846FFF7DBFAE5
:10206000A0612846FFF7F6FA294660636846FFF745
:10207000D5FA009B53F80C0CE0600CF00EFD002329
:1020800001460646E268684604F04CFCE3682BB162
:1020900096F90030002BD4BF002301232946237476
:1020A00001A8FFF7C2FA019B53F80C0C344B2062D5
:1020B000984294BF80004FF0FF300CF0EEFC226A93
:1020C00080460023014601A805F05AFB294602A8D4
:1020D000FFF7B2FA029B53F80C0C294BA06298420E
:1020E00094BF80004FF0FF300CF0D7FCA26A81460D
:1020F0000023014602A805F043FB294603A8FFF789
:10210000A2FA039B53F80C0C1D4B2063984294BF1A
:1021100080004FF0FF300CF0C0FC226B0146002322
:10212000824603A805F02CFB2846FFF796FAA06329
:102130002846FFF797FAE0633846FFF79FFC114BFC
:10214000196804F1400301F10B02FFF7D2FE0123ED
:1021500084F86C30A660C4F81C80C4F82490C4F8DD
:102160002CA003A805F0ACFB02A805F0A9FB01A870
:1021700005F0A6FB684604F07FFC04B0BDE8F087DC
:10218000FEFFFF1F180000202DE9F043044685B034
:1021900008460F46FFF790FC0146054601A8FFF7E9
:1021A000FDFA019B53F80C0CE0600CF076FC002368
:1021B00001460646E26801A804F0B4FBE3682BB1CF
:1021C00096F90030002BD4BF002301232946237445
:1021D00002A8FFF7EAFA029B53F80C0C2B4BA06104
:1021E000984294BF80004FF0FF300CF056FCA2697B
:1021F00081460023014602A805F0C2FA294603A839
:10220000FFF7DAFA039B53F80C0C204B206298423C
:1022100094BF80004FF0FF300CF03FFC226A014673
:102220000023804603A805F0ABFA2846FFF7B0FA72
:1022300060622846FFF7AFFAA0623846FFF71EFC3F
:10224000134B196804F12C0301F124020546FFF732
:1022500050FE104B1968284601F11A0204F1BC0324
:10226000FFF747FE012384F82431A660C4F81490D8
:10227000C4F81C8003A805F023FB02A805F020FB8E
:1022800001A804F0F9FB05B0BDE8F083FEFFFF1FD5
:1022900014000020100000202DE9F0410D460F48E9
:1022A0000DF00AFD2B68DE6856F820800446B8F170
:1022B000000F0FD17020FEF761FA41460746FFF785
:1022C00039F929463846FFF7BDFE224639462868C7
:1022D0000DF0AAFD56F82400BDE8F081D0080020DA
:1022E00010B504460068FEF7A4FD4FF0FF336360AD
:1022F000204610BD03689B68184700002DE9F04197
:102300000D460F480DF0D8FC2B68DE6856F820808B
:102310000446B8F1000F0FD17020FEF72FFA4146A6
:102320000746FFF7EDF829463846FFF7E9FD224654
:10233000394628680DF078FD56F82400BDE8F08194
:10234000D4080020F7B56C4684E806009DF80450D8
:10235000089F06463DB93A4619460098FEF77EFDAD
:10236000874218BF01258DF8045094E8030086E8E1
:102370000300304603B0F0BD2DE9F04F8FB00DF1F2
:102380001808DDF86090049009F16C04204688E894
:102390000C00FFF773FB2146064608A8FFF77CFFF9
:1023A0001A9B1D68036C2A689A42044655F80C3C37
:1023B00079D0D0E909BA826B0992326805EB8303C0
:1023C000576904212A463046B847401B871000F061
:1023D000B980744B0A9379000AA805F0A9FB636BD6
:1023E000FE1A002E25DD36EA230628BF3E46E368A6
:1023F000002B60D0002271000AA805F00DFB0AA88E
:1024000005F0CCFA05EB8603CDE900530A98A169E3
:10241000D4E90223FFF75EFC03900AA805F0BEFA98
:102420000A9B0399C91A4FF0FF3289100AA805F0D8
:10243000BFFA636B002B0BDD61690AA805F04BFC4A
:10244000002E3EDB626B05EB86010AA805F0BAFBA5
:10245000D9F80C2002F0B00303930A9B12F4007227
:1024600053F80C3C18BF226A5344134459004D4A98
:1024700005930BA80B9205F05BFB039BD9F8085062
:10248000102B059B25D1AB422CBF00270127EB1A4F
:102490000026059309AB9B5D042B25D8DFE803F0EC
:1024A000756C1B5E6700C26B0992D0E90BBA002BFA
:1024B00083D0043581E7324629460AA805F0DCFAC4
:1024C000B7E7626C71420AA805F0B6FB3A462946A6
:1024D000BBE70027DBE7D9F80C309B0504D5D4E92E
:1024E00007120BA805F06EFB0136042ED2D1BAF10B
:1024F000010F06D90AF1FF320BF104010BA805F018
:1025000061FB0B9B53F80C1C8D4248D9039B202B7D
:10251000A5EB01013CD1199A0BA805F08DFB0CAC81
:10252000009598E806000B9B2046FFF70BFF94E808
:10253000030006900BA88DF81C1005F0C1F90AA83D
:1025400005F0BEF998E803000023C9F80830049BA1
:1025500083E8030018460FB0BDE8F08FBAF1000F12
:10256000C2D0DBF800100BA805F0B5FBBCE70AA948
:102570000BA805F023FBB7E72FB1199A05990BA813
:1025800005F05AFBB0E71999EDE7002FACD0F4E75E
:102590000A46199B00210BA805F04AFABFE70D4631
:1025A000BDE700BFF40800202DE9F04F8FB00DF11A
:1025B0001808DDF86090049009F16C04204688E862
:1025C0000C00FFF75BFA2146064608A8FFF796FEC7
:1025D0001A9B1D68036C2A689A42044655F80C3C05
:1025E00079D0D0E909BA826B0992326805EB83038E
:1025F000576904212A463046B847401B871000F02F
:10260000B980744B0A9379000AA805F091FA636BBC
:10261000FE1A002E25DD36EA230628BF3E46E36873
:10262000002B60D0002271000AA805F0F5F90AA875
:1026300005F0B4F905EB8603CDE900530A98A169CA
:10264000D4E90223FFF746FB03900AA805F0A6F998
:102650000A9B0399C91A4FF0FF3289100AA805F0A6
:10266000A7F9636B002B0BDD61690AA805F033FB4A
:10267000002E3EDB626B05EB86010AA805F0A2FA8C
:10268000D9F80C2002F0B00303930A9B12F40072F5
:1026900053F80C3C18BF226A5344134459004D4A66
:1026A00005930BA80B9205F043FA039BD9F8085049
:1026B000102B059B25D1AB422CBF00270127EB1A1D
:1026C0000026059309AB9B5D042B25D8DFE803F0BA
:1026D000756C1B5E6700C26B0992D0E90BBA002BC8
:1026E00083D0043581E7324629460AA805F0C4F9AB
:1026F000B7E7626C71420AA805F09EFA3A4629468D
:10270000BBE70027DBE7D9F80C309B0504D5D4E9FB
:1027100007120BA805F056FA0136042ED2D1BAF1F1
:10272000010F06D90AF1FF320BF104010BA805F0E5
:1027300049FA0B9B53F80C1C8D4248D9039B202B64
:10274000A5EB01013CD1199A0BA805F075FA0CAC68
:10275000009598E806000B9B2046FFF7F3FD94E8F0
:10276000030006900BA88DF81C1005F0A9F80AA824
:1027700005F0A6F898E803000023C9F80830049B88
:1027800083E8030018460FB0BDE8F08FBAF1000FE0
:10279000C2D0DBF800100BA805F09DFABCE70AA92F
:1027A0000BA805F00BFAB7E72FB1199A05990BA8FA
:1027B00005F042FAB0E71999EDE7002FACD0F4E745
:1027C0000A46199B00210BA805F032F9BFE70D4618
:1027D000BDE700BFF40800202DE9F04F2DED028B7E
:1027E000B0EE408B8FB004AF07F1100585E80C0008
:1027F00097F85830BB60FB6D81468A4607F1200090
:1028000003F16C010DF0DCF907F12000FFF736F958
:1028100090B0F8600DF0E4F90DF1100807F124060E
:102820004FF0000B78628DED028BCDF800B02C4B91
:10283000402241463046FEF717FE3F28044616DD8B
:10284000083424F00704ADEB040D421C7A600DF04F
:10285000C7F90DF1100878628DED028BCDF800B04C
:102860001F4B7A6841463046FEF7FEFD044621467E
:1028700007F11C030022304605F008F844443046B6
:1028800005F08CF87B6AF86822464146FFF731FB79
:10289000BB680296C3B13B6E0193FB6D009351463A
:1028A00095E80C004846FFF767FD07F1240005F0A6
:1028B00007F807F120000DF0E9F948462C37BD462E
:1028C000BDEC028BBDE8F08F3B6E0193FB6D009376
:1028D000514695E80C004846FFF766FEE5E700BF65
:1028E000D4210208F0B587B004AC84E80C00DDE91F
:1028F0000D320F9D9DF830700093CDE901250646FD
:1029000094E80C0027B1FFF737FD304607B0F0BD63
:10291000FFF74AFEF9E700002DE9F0410D461048A7
:102920000DF0CAF92B68DE6856F820800446B8F12D
:10293000000F10D14FF49470FDF720FF4146074679
:10294000FEF700FF29463846FFF71EFC22463946AF
:1029500028680DF069FA56F82400BDE8F08100BF40
:10296000C408002003681B6B184703689B6A18475C
:102970002DE9F8431D46C368DDE9086703F0B0039D
:10298000202B89461446A6EB07060CD13A46294669
:102990002046FEF7A9FD4A46314604EB8700FEF7C4
:1029A000A7FDBDE8F883102B0FD04FF000084A4672
:1029B00031462046FEF79CFDA7EB080205EB880197
:1029C00004EB8600FEF790FDEBE76C30FFF756F85E
:1029D0002D218046FFF7C9FF2B68984205D12B684F
:1029E00044F8043B4FF00108E1E72B214046FFF794
:1029F000BCFF2B689842F2D030214046FFF7B5FF6C
:102A00002B689842D1D1012FCFDD78214046FFF7C6
:102A1000ACFF6B68984207D12B6823606B686360DA
:102A20004FF002080834C2E758214046FFF79DFFE7
:102A30006B689842B9D1EFE737B5089C1846236810
:102A40001546CDE90023DDE90623FFF791FF256058
:102A500003B030BD2DE9F04F8BB004AFC7E90010D3
:102A60003E6C07F1080181E80C0007F1100006F147
:102A70006C01FFF751FFF568B96C05F04A0A94B094
:102A8000BAF1400F044600F12C090DF1100B02D0F1
:102A9000BAF1080F71D14FF000082B464A46CDF825
:102AA00000800BF15000FFF79DF9227C7861C0F1A6
:102AB00014030BEB830392B1C0000830ADEB000DA3
:102AC0000DF1180B07F11402CDE90232CDE9006BCC
:102AD0003868A36AD4E90212FFF76FF95B467A6996
:102AE000B8F1000F31D0B96C00292CDB280505D5D1
:102AF000216B43F8041C01327A61043BB2687969A6
:102B0000914211DA9100073121F00701ADEB010D7F
:102B100004AC07F11401CDE9013100943346796C1E
:102B20003868FFF789FF23460022B2607A69009275
:102B300007F10802786806CAFFF704FC78681C37BA
:102B4000BD46BDE8F08FE16AD3E7A905D6D5B96CDB
:102B50000029D3D0BAF1400F01D1E16BC9E7C5F329
:102B600080350235023259F8251043F8041CE16B18
:102B700043F8081C7A61083BC0E7BB6C002B01DC02
:102B8000BB6C59424FF0010887E730B587B004AC01
:102B900084E80C000C9B02930B9B01930A9B00930F
:102BA00094E80C000546FFF755FF284607B030BDF6
:102BB0002DE9F04F8DB004AF07F1080484E80C0054
:102BC000BB6C97F85060DA687A6012F0010F8146AA
:102BD00007F1180515D1FA6C0296CDE900322846A6
:102BE00094E80C00FFF736FF95E80300B8603973EE
:102BF00094E80300243789E803004846BD46BDE851
:102C0000F08F03F16C0107F11400BB64FFF784FE41
:102C1000BB6C86B3D0E905A89E68B0453DDAA6EB4B
:102C20000806B200073222F00702ADEB020D0DF1EB
:102C3000100BFA6CBB6431465846FEF759FCBB6C6E
:102C400000229A607B6803F0B003202B16D1534614
:102C500094E806002846CDF80080FFF773FB95E85E
:102C600003005B46B8603973009694E80600284676
:102C7000FFF768FBB8E7D0E907A8CDE794E80600BE
:102C8000284600965B46FFF75DFB95E80300B860B9
:102C90003973CDF800805346E7E700229A60F8E7E1
:102CA0002DE9F04F8BB004AFC7E900103E6C07F17F
:102CB000080181E80C0007F1100006F16C01FFF734
:102CC0002BFEF46804F04A0894B0B8F1400F0546B2
:102CD00000F12C0A0DF1100B5DD0B8F1080918BFF6
:102CE0004FF0010923465246CDF80090B96C0BF124
:102CF0005000FFF777F82A7C7861C0F114030BEBE2
:102D0000830392B1C0000830ADEB000D0DF1180B3C
:102D100007F11402CDE90232CDE9006B3868AB6AE5
:102D2000D5E90212FFF749F85B46B9F1000F0DD162
:102D3000A2050BD5BA6C4AB1B8F1400F7A692DD112
:102D4000E96B43F8041C01327A61043BB26879698B
:102D5000914211DA9100073121F00701ADEB010D2D
:102D600004AC07F11401CDE9013100943346796CCC
:102D70003868FFF761FE23460022B2607A6900924C
:102D800007F10802786806CAFFF7DCFA78681C3792
:102D9000BD46BDE8F08F4FF00009A3E7C4F38034CF
:102DA000023402325AF8241043F8041CE96B43F849
:102DB000081C7A61083BC9E730B587B004AC84E8E9
:102DC0000C000C9B02930B9B01930A9B009394E8CD
:102DD0000C000546FFF764FF284607B030BD2DE91B
:102DE000F04188B004AC0E9DD5F80C8084E80C004E
:102DF00028F4804323F04A0343F40273EB60109BF2
:102E000002930F9BCDE9005306AF064694E80C00F1
:102E10003846FFF745FF97E8030004908DF814103B
:102E200094E8030086E803003046C5F80C8008B03B
:102E3000BDE8F0812DE9F04F8BB004AFC7E9001079
:102E40003E6C07F1080181E80C0007F1100006F163
:102E50006C01FFF761FDF56805F04A09A8B0B9F10A
:102E6000400F044600F12C0A0DF1100BD7E9122394
:102E700002D0B9F1080F75D14FF00008CDE9015823
:102E8000CDF800A00BF1A000FEF7E0FF227C7861F6
:102E9000C0F128030BEB830392B1C0000830ADEB07
:102EA000000D0DF1180B07F11402CDE90232CDE946
:102EB000006B3868A36AD4E90212FEF77EFF5B4616
:102EC0007A69B8F1000F34D0D7E91201002871F106
:102ED00000012CDB280505D5216B43F8041C0132C9
:102EE0007A61043BB2687969914211DA9100073145
:102EF00021F00701ADEB010D04AC07F11401CDE9A0
:102F0000013100943346796C3868FFF795FD23460C
:102F10000022B2607A69009207F10802786806CA56
:102F2000FFF710FA78681C37BD46BDE8F08FE16AFC
:102F3000D3E7A905D6D5D7E912010143D2D0B9F11B
:102F4000400F01D1E16BC8E7C5F38035023502328D
:102F50005AF8251043F8041CE16B43F8081C7A6109
:102F6000083BBFE7D7E91201012871F1000104DA3B
:102F7000D7E91223524263EB43034FF001087DE788
:102F800030B587B004AC84E80C00DDE90C23CDE952
:102F900002230B9B01930A9B009394E80C000546C7
:102FA000FFF748FF284607B030BD2DE9F04F8BB042
:102FB00004AFC7E900103E6C07F1080181E80C007E
:102FC00007F1100006F16C01FFF7A6FCF46804F0AD
:102FD0004A08A8B0B8F1400F054600F12C0A0DF1DF
:102FE000100B60D0B8F1080918BF4FF00109D7E9FC
:102FF0001223CDE90149CDF800A00BF1A000FEF7A6
:1030000025FF2A7C7861C0F128030BEB830392B182
:10301000C0000830ADEB000D0DF1180B07F11402E4
:10302000CDE90232CDE9006B3868AB6AD5E902120E
:10303000FEF7C3FE5B46B9F1000F0FD1A2050DD517
:10304000D7E912120A4309D0B8F1400F7A692DD19D
:10305000E96B43F8041C01327A61043BB268796978
:10306000914211DA9100073121F00701ADEB010D1A
:1030700004AC07F11401CDE9013100943346796CB9
:103080003868FFF7D9FC23460022B2607A690092C3
:1030900007F10802786806CAFFF754F978681C3708
:1030A000BD46BDE8F08F4FF00009A0E7C4F38034BF
:1030B000023402325AF8241043F8041CE96B43F836
:1030C000081C7A61083BC9E730B587B004AC84E8D6
:1030D0000C00DDE90C23CDE902230B9B01930A9B35
:1030E000009394E80C000546FFF75FFF284607B001
:1030F00030BD2DE9F04F2DED028BB0EE408B91B03D
:1031000004AF8A463D6E07F1080181E80C0005F125
:103110006C031946814607F114003B60FFF7FCFB86
:10312000D5F8048097F86820B8F1000F064607F13B
:1031300020012846B8BF4FF006080CF0E4FBEB680E
:1031400003F482738CB0B3F5827F7B6004AC00F033
:10315000AE800CF045FD07F12003F8612D228DEDC6
:10316000028BCDF80080214607F11C00FEF77CF9A8
:10317000B861BB692C2B1CDD03F1010B083323F074
:103180000703ADEB030D7B68B3F5827F04AC00F061
:103190009C800CF025FD07F12003F8615A468DED67
:1031A000028BCDF80080214607F11C00FEF75CF988
:1031B000B8613868FEF762FCBA699300073323F000
:1031C0000703ADEB030D0DF11008434622442146E1
:1031D000FEF78FFEBB69002B00F085801A462E217A
:1031E00020467B6017F00CFA7B6828B1021B716ADD
:1031F00048F8221008EB8200327C82B348B9022BD7
:1032000007DD6278303A092A29D8A278303A092AAB
:1032100025D86A46A2EBC302954622782D2A0DF1E5
:10322000100B01D02B2A60D1D8F80020CBF8002059
:10323000013BBB610124A30007F11802039208EBD4
:1032400003025B44CDE900030292B36AD6E902129D
:103250005046FEF78FFDBB691C44BC61D846AA6886
:10326000BB69934211DA9300073323F00703ADEBF8
:10327000030D07F11803CDE9018304AC00942B463C
:10328000796E5046FFF7D8FBA0460023AB60BB69C0
:10329000009307F108024846434606CAFFF752F872
:1032A00048463437BD46BDEC028BBDE8F08F0CF0CC
:1032B00097FC07F12003F8612D228DED008B21464C
:1032C00007F11C00FEF7D0F852E70CF089FC07F17B
:1032D0002003F8615A468DED008B214607F11C0052
:1032E000FEF7C2F864E7184686E70024A3E730B586
:1032F00087B004AC84E80C00002302930B9B01937D
:103300000A9B009394E80C000546FFF7F2FE28465E
:1033100007B030BD2DE9F04F2DED028BB0EE408BA4
:1033200091B004AF8A463D6E07F1080181E80C00B8
:1033300005F16C031946814607F114003B60FFF765
:10334000EBFAD5F8048097F86820B8F1000F06462C
:1033500007F120012846B8BF4FF006080CF0D3FA59
:10336000EB6803F482738CB0B3F5827F7B6004ACAE
:1033700000F0AE800CF034FC07F12003F8612D2240
:103380008DED028BCDF80080214607F11C00FEF781
:103390006BF8B861BB692C2B1CDD03F1010B083302
:1033A00023F00703ADEB030D7B68B3F5827F04AC1C
:1033B00000F09C800CF014FC07F12003F8615A46E1
:1033C0008DED028BCDF80080214607F11C00FEF741
:1033D0004BF8B8613868FEF751FBBA6993000733C0
:1033E00023F00703ADEB030D0DF110084346224413
:1033F0002146FEF77EFDBB69002B00F085801A4652
:103400002E2120467B6017F0FBF87B6828B1021B59
:10341000716A48F8221008EB8200327C82B348B906
:10342000022B07DD6278303A092A29D8A278303A8F
:10343000092A25D86A46A2EBC302954622782D2A8E
:103440000DF1100B01D02B2A60D1D8F80020CBF859
:103450000020013BBB610124A30007F11802039285
:1034600008EB03025B44CDE900030292B36AD6E99C
:1034700002125046FEF77EFCBB691C44BC61D84674
:10348000AA68BB69934211DA9300073323F007035C
:10349000ADEB030D07F11803CDE9018304AC0094F3
:1034A0002B46796E5046FFF7C7FAA0460023AB6063
:1034B000BB69009307F108024846434606CAFEF777
:1034C00041FF48463437BD46BDEC028BBDE8F08F66
:1034D0000CF086FB07F12003F8612D228DED008BA7
:1034E000214607F11C00FDF7BFFF52E70CF078FB07
:1034F00007F12003F8615A468DED008B214607F154
:103500001C00FDF7B1FF64E7184686E70024A3E737
:1035100030B587B004AC84E80C004C2302930B9BBD
:1035200001930A9B009394E80C000546FFF7F2FE16
:10353000284607B030BD2DE9F043ADF5097D0746BB
:10354000909D9DF84C829DF850626C35284602ACE7
:1035500084E80C00FEF792FA81462846FEF742FB0B
:10356000252105464846FFF700FA0490C6B9CDE983
:103570000586929B009308A904AB802228460CF094
:10358000C9FD08A81AF0BCFA009008AB384694E8C8
:103590000600FEF7D7FE38460DF5097DBDE8F0833D
:1035A0000023CDE905680793E3E703689B691847A3
:1035B00010B50446D0E9003043B1421C06D118468C
:1035C000FDF743FC431C04BF0023236010BD38B546
:1035D0000D46FFF7EDFF04462846FFF7E9FF431CC1
:1035E000584204F10102584154425441011B4842DF
:1035F000484138BD08B5FFF7EAFF80F00100C0B2CE
:1036000008BD2DE9F74F8146DDE9120602A96C30AD
:10361000DDF8448001E90C00FEF730FAB8F1020F42
:1036200083462ED0B8F1040F0CBF4FF47A770127F0
:10363000002425464FF00A0A0CA96846FFF7DAFF76
:1036400008B3454521D06846FFF7B2FF2A2201465C
:103650005846FFF787F93038C2B2092A20D80AFB4A
:103660000404109B04FB07F29A4219DC0F9B3A44B6
:103670009A4215DDB7FBFAF76846FEF731FE0135D1
:10368000DAE70A27D4E745450AD10E9B1C6002AB56
:1036900013E9030089E80300484603B0BDE8F08F52
:1036A000B8F1040F03D1022D01D1643CEDE733687A
:1036B00043F004033360EAE72DE9F04F87B000AF31
:1036C00007F11004F860786DD7F84C806C3084E80E
:1036D0000C00FEF7D3F93B6D9B00073323F0070383
:1036E0008346ADEB030D07F1400120466E46FFF720
:1036F00081FF00287ED02046FFF75AFF4FF00009D7
:1037000082464D463B6D994510D058F829100968FE
:10371000514505D146F82590013509F10109F1E738
:103720005846FFF742FF5045F7D1F3E74FF0000B43
:10373000012D41D9B14659F8042B58F822001AF04E
:10374000DFF906EB8501824659F8040BB96058F899
:1037500020001AF0D5F9B968824528BF824649454C
:10376000F2D120460BF1010BFEF7BAFDD34541D251
:1037700007F140012046FFF73DFF00283AD04FEA0D
:103780008B024FF0000A56F82A1058F82110895879
:103790002046C7E90121FFF70BFFB9687A6881422B
:1037A00017BF05F1FF350AF1010A56F8251046F852
:1037B0002A10AA45E7D3BBE71CD12046FEF790FDAF
:1037C000356858F8256030461AF09AF90BF1010B6C
:1037D0008046C3451ED207F140012046FFF70AFF8D
:1037E00040B156F82B30BB602046FFF7E1FEBB68C6
:1037F000834213D0BB6DBA6D1B6843F004031360A2
:1038000094E80300FB681C3783E803001846BD46B4
:10381000BDE8F08FEED1BB6C1D60F1E72046FEF7EE
:103820005FFD0BF1010BD4E72DE9F04F85B000AF40
:103830008146F86CD7F844A007F108086C3088E896
:103840000C00FEF71BF9BB6C6A46A2EBC303834670
:103850009D4607F1380140466D46FFF7CBFEB0B3F9
:103860004046FFF7A5FEBA6C0026034652003446D8
:10387000B24213D05AF826100968994204D145F88B
:10388000246001340136F3E75846C7E90032FFF7F8
:103890008CFE3B687A689842F4D1F0E7BCB14046B0
:1038A000FEF71EFDA300073323F00703ADEB030D66
:1038B000E846002655F826305AF823001AF020F979
:1038C00048F826000136B442F4D1012602E0002671
:1038D000B046344607F1380107F10800FFF78AFEC9
:1038E00070B307F10800FFF763FE00234FEA860B71
:1038F00019469C421CD958F823204FEA830CB24247
:1039000008EB0C0E02D801310133F2E755F8232001
:103910005AF8222052F80B208242F5D0013C55F88B
:10392000242045F80C2058F82420CEF80020E0E7A9
:103930008C4205D007F10800FEF7D2FC0136C9E73A
:10394000012C15D1D8F80030B3421AD1BA6C2B68CB
:10395000934228BF9B1A3A6C136007F1100313E9D6
:103960000300143789E803004846BD46BDE8F08FE0
:10397000022C06D1D8F80030B342E7D0D8F8043092
:10398000E2E73B6D3A6D1B6843F00403E4E7000097
:103990002DE9F04F9FB00D462A9C0B9004F16C0668
:1039A0000EA9304681E80C00DDF8B0A0FEF71AF948
:1039B00008903046FEF762F883462D981AF0A0F87A
:1039C00000260A9010960EAF28A93846FFF712FE7F
:1039D000DDF84090002867D00A9B9E4264D2B9F17E
:1039E000000F65D12D9B4A4653F82610584603EB2D
:1039F0008608FEF7B7FF252840F0A982731C4A46C7
:103A0000D8F8041009935846FEF7ACFF4528CDF8C6
:103A1000449001D04F2807D1B31C0022D8F80810D9
:103A200009935846FEF79EFF41380EAE382800F243
:103A30008982DFE810F06A009500D901F000870262
:103A4000870287021001350187028702870264011D
:103A5000870287028702870298019D01CB018702B6
:103A600087028702D401D9010302870287028702F5
:103A7000870287028702440070009B00A300C600F3
:103A8000870287027000870287028702870240014F
:103A9000890187028702870287028702C1018702A4
:103AA00087028702CF01D901B9F1000F00F06082CF
:103AB0002B9B2B9A1B6843F0040313605CE212AE4D
:103AC00031460898FDF7B6FE10ABCDE90543072354
:103AD000CDE9036311AB029328AB93E803008DE8B3
:103AE00003000CAF0EAE96E80C0029463846FFF7EF
:103AF000E3FD97E80300109B86E8030013B9119BD0
:103B0000CAF81830099E01365DE712AE31460898B2
:103B1000FDF780FED8E712AE31460898FDF7B9FEF2
:103B200010ABCDE905430C23CDE9036311AB029340
:103B300028AB93E803008DE803000CAF0EAE96E8C7
:103B40000C0029463846FFF7B7FD97E80300109BA5
:103B500086E80300002BD5D1119BCAF81030D1E7BD
:103B600012AE31460898FDF775FED9E712A90898FC
:103B7000FDF74AFE129B05930CAF56E010ABCDE962
:103B8000064302211F23CDE904310123039311AB26
:103B9000029328AB93E803008DE803000CAF0EAE50
:103BA00096E80C0029463846FFF72BFD97E80300FE
:103BB000109B86E80300002BA4D1119BCAF80C309F
:103BC000A0E73046FFF7F4FC082102465846FEF70E
:103BD00091FBB0B10E98FDF72CF94FF0FF330F9326
:103BE00010ABCDE9064309220123CDE904230CAF34
:103BF000039311AB029328AB93E803008DE8030015
:103C0000CEE710ABCDE9064302221F23CDE90432F3
:103C10000CAF0A23ECE712AEC64A3346A2F1090103
:103C20005846FEF766F90CAF059610ABCDE9024396
:103C3000CDF810A028AB93E803008DE803000EAE8A
:103C40002946384696E80C00FFF7A2FE97E80300E5
:103C500086E8030056E710ABCDE906434FF00209B2
:103C60001723CDE904390CAF0023039311AB029362
:103C700028AB93E803008DE803000EAE96E80C0035
:103C800029463846FFF7BDFC97E80300109B86E8FD
:103C90000300002B7FF436AF119BCAF8083031E7E0
:103CA00010ABCDE906434FF002080C23CDE90438F0
:103CB0000CAF0123D9E710ABCDE906434FF0020E5C
:103CC0000C23CDE9043E0123039311AB029328ABEF
:103CD00093E803008DE803000CAF0EAE96E80C00ED
:103CE00029463846FFF78DFC97E80300109B86E8CD
:103CF0000300002B7FF406AF119B013B2DE710ABB7
:103D0000CDE906434FF0020C3B23CDE9043C0023F0
:103D1000039311AB029328AB93E803008DE80300F3
:103D20000CAF0EAE96E80C0029463846FFF769FC4A
:103D300097E80300109B86E80300002B7FF4E2AEB7
:103D4000119BCAF80430DDE63046FFF731FC002253
:103D500001465846FEF706FE0A2840F0F38030463A
:103D6000FEF7BEFACEE6744A12AE3346911F57E70D
:103D700010ABCDE9064302263D23CDE904360023EE
:103D8000039311AB029328AB93E803008DE8030083
:103D90000CAF0EAE96E80C0029463846FFF731FC12
:103DA00097E80300109B86E80300002B7FF4AAAE7F
:103DB000119BCAF80030A5E63046FFF7F9FB002258
:103DC00001465846FEF7CEFD0928C6E712AE334637
:103DD0005A4A23E712A90898FDF70AFDCAE612A974
:103DE0000898FDF70BFDC5E610ABCDE906430420AE
:103DF00042F20F73CDE904300023039311AB029319
:103E000028AB93E803008DE803000CAF0EAE96E8F4
:103E10000C0029463846FFF7F4FB97E80300109B97
:103E200086E80300002B7FF46DAE119B002BB4BF1E
:103E30006433A3F26C73CAF8143063E63046FFF7BC
:103E4000B7FB012102465846FEF754FA002879D004
:103E500010ABCDE905430E230493394B039312AB0A
:103E6000029328AB93E803008DE803000CAF2946CA
:103E7000384696E80C00FFF71FFC97E8030086E839
:103E8000030028A93046FFF7B5FB00283FF43AAEFF
:103E9000109A129B13437FF435AE3046FFF788FB30
:103EA0002D2107465846FEF760FDB84236D110AFC7
:103EB00017230222CDE90432CDE90647002312AED2
:103EC0000393029628AB93E803008DE803000DF1FD
:103ED00030090DF1380898E80C0029464846FFF7EC
:103EE00090FB99E803003B2388E803000221CDE919
:103EF00004310023CDE90263CDE9064728AB93E8FE
:103F000003008DE803002946484698E80C00FFF7B7
:103F100078FB99E8030088E80300F3E53046FFF7F3
:103F200047FB2B2106465846FEF71FFDB0427FF4A3
:103F3000E9ADBCE7C5210208CB210208D421020863
:103F400054000020109B43F004031093DAE52D9BEE
:103F5000384653F82680FFF72BFB804503D13846BF
:103F6000FEF7BEF9CFE5109B43F004031093CAE5BA
:103F70000A9B9E427FF49CAD97E803000B9B83E86D
:103F8000030018461FB0BDE8F08F00BF2DE9F04FC9
:103F90008BB004AE169902906C3107A886E80C002D
:103FA000FEF7BAFC0023044614A930460893FFF735
:103FB0000EFB8146002851D13046FFF7F9FAD4F8BC
:103FC000C0100890814203D0D4F8BC3083421DD188
:103FD000237C13B1A36A834218D0636A834215D04D
:103FE00081420CBF2B212D21189802F07CFF0498F0
:103FF000FCF71FFF4FF0FF3314A930460593FFF77E
:10400000F9FA58B33046FFF7D3FA08900027B846BC
:104010004FF0FF35227C089B12B1A26A9A4222D04F
:10402000626A9A421FD0D4F8CC209A421BD11FB9A1
:104030003021189802F057FF0498FCF7FAFE14A9F3
:1040400030460595FFF7D6FA08F101080746002823
:1040500050D03046FFF7ACFA0890DBE74FF000088D
:1040600047464FF00109AD4B0993237C1BB120213A
:1040700009A802F065FE94F824A1BAF1000F65D0FA
:1040800004F1CC0300250193AB46B9F1000F40F0D9
:10409000AC80227C089B002A00F0C980A26A9A4268
:1040A00040F0C580BBF1000F40F09F80002D40F034
:1040B0009C80B8F1000F00F094805FFA88F109A8A5
:1040C00002F011FFB9465B46D84604980393FCF70B
:1040D000B0FE4FF0FF3314A930460593FFF78AFA7C
:1040E000039B00287BD03046FFF762FA002508903A
:1040F000039B6EE04FF001094F46B4E7A9465546D1
:104100005746B9F1000F70D1089A0A201146FDF701
:104110008BF9431C1DD000F13001C9B2189802F090
:10412000E2FE4FF0010A0498FCF783FE4FF0FF33E4
:1041300014A930460593FFF75DFA20B13046FFF72A
:1041400037FA0890DCE74FF00109D9E75546D34626
:10415000D7E7636A9A420BD1BBF1000F08D13DB992
:104160002E21189802F0BFFEBA464FF0010BDAE795
:10417000D4F804319A4203D0D4F81C319A4234D195
:104180009DBB97B36521189802F0ADFE0498FCF72B
:1041900050FE4FF0FF3314A930460593FFF72AFA7B
:1041A0008246002800F0B8803046FFF701FAD4F8C4
:1041B000C0300890834209D0D4F8BC3083429DD1EE
:1041C0002D21189802F08FFE5546ACE72B21F8E719
:1041D00099464F46A9461D4657E74B46F9E75546CF
:1041E000F7E7189802F052FCC346099B53F80C3CC1
:1041F0008BB1BBF1000F05D125B95FFA88F109A891
:1042000002F071FE09AAD4E902010BF0EDFB10B92E
:10421000179B04221A6096E80300029B83E80300C0
:1042200009A802F029FC02980BB0BDE8F08F626A81
:104230009A4215D1099B53F80C3CBBF1000FD4D125
:10424000002DD2D123B15FFA88F109A802F04BFE0C
:104250002E21189802F047FED3460023B94634E7D2
:1042600008AA0A210198FDF737F960B1019BC11A2C
:1042700089103031C9B2189802F035FE08F10108F2
:104280002B46D14621E7089BD4F804219A4203D05B
:10429000D4F81C219342A8D1099B53F80C3C002D63
:1042A000A3D1002FA1D03BB1BBF1000F04D15FFA25
:1042B00088F109A802F017FE6521189802F013FE94
:1042C0000498FCF7B6FD4FF0FF3314A93046059370
:1042D000FFF790F98146F8B13046FFF769F9D4F855
:1042E000C0100890814204D0D4F8BC3083427FF4DF
:1042F00074AF237C1BB1A26A82423FF469AF636A48
:1043000083423FF46AAF81420CBF2B212D211898C4
:1043100002F0E9FD4B46D8E63D4666E7E40800209A
:104320002DE9F0438DB008AC179D0AAF84E80C006E
:1043300089461D4B0A9320210646384602F000FDAF
:10434000CDE90357169B029314AB93E803008DE865
:1043500003000DF1180894E80C0040464946FFF7A9
:1043600015FE98E80300DDF8288084E803000BF0D0
:1043700037FC18990B900BAB40462A460BF0F6FF22
:1043800014A92046FFF723F918B12B6843F0020364
:104390002B6094E8030086E80300384602F06CFBCB
:1043A00030460DB0BDE8F083E40800202DE9F0436D
:1043B0008DB008AC179D0AAF84E80C0089461D4BF0
:1043C0000A9320210646384602F0BAFCCDE903578D
:1043D000169B029314AB93E803008DE803000DF1E4
:1043E000180894E80C0040464946FFF7CFFD98E8CE
:1043F0000300DDF8288084E803000BF0F1FB189936
:104400000B900BAB40462A460BF0FEFF14A920464A
:10441000FFF7DDF818B12B6843F002032B6094E836
:10442000030086E80300384602F026FB30460DB054
:10443000BDE8F083E40800202DE9F0438DB008AC1E
:10444000179D0AAF84E80C0089461D4B0A93202172
:104450000646384602F074FCCDE90357169B0293DA
:1044600014AB93E803008DE803000DF1180894E8FD
:104470000C0040464946FFF789FD98E80300DDF847
:10448000288084E803000BF0ABFB18990B900BAB72
:1044900040462A460CF010F814A92046FFF797F87A
:1044A00018B12B6843F002032B6094E8030086E800
:1044B0000300384602F0E0FA30460DB0BDE8F08364
:1044C000E40800202DE9F04F8DB00DF1180A189C7A
:1044D000059004F16C0109A88AE80C00FEF71CFAAB
:1044E000E76807F04A070023402F05460A934CD09F
:1044F000082F0CBF4FF010084FF00A0816A95046BD
:10450000FFF765F88146002877D15046FFF750F84D
:10451000D5F8BC300A9083420CBF4FF0010B4FF02E
:10452000000B03D0D5F8C030834218D12B7C13B1D7
:10453000AB6A834213D06B6A834210D00698FCF7B3
:1045400078FC4FF0FF3316A950460793FFF752F857
:10455000064600285BD05046FFF72AF80A9000264E
:1045600034462A7C0A9B12B1AA6A9A4249D06A6AE6
:104570009A4246D0D5F8CC209A4210D146B1B8F133
:104580000A0F0DD147B93C462DE04FF00808B5E7BA
:104590003FB3B8F1080F29D0013401260EE0F6B17F
:1045A000D5F8C4209A4203D0D5F8C8209A4232D117
:1045B000F7B1B8F1100F33D1002426460698FCF766
:1045C00038FC4FF0FF3316A950460793FFF712F857
:1045D00018B35046FEF7ECFF0A90002EC1D1B14649
:1045E0000FE03C4601264FF00808E7E73446D4E7E1
:1045F0003E463C464FF01008E0E74FF0000B5C46AB
:104600005E46B8F1100F0CD1162301930BE04FF06A
:1046100001090446F5E70126F3E74FF00109F0E749
:104620000126CDF804806F4B0B932B7C1BB120210E
:104630000BA802F085FBBBF1000F14BF4FF0004345
:104640006FF000430293B3FBF8F3039395F8243122
:104650000093002B4ED005F1CC0300270493BA46FB
:10466000B9F1000F1FD12B7C0A9A002B72D0A96AD6
:104670008A426FD1C4B1E1B20BA802F034FC00242D
:104680000698FCF7D6FB4FF0FF3316A906A8079350
:10469000FEF7B0FF00285AD006A8FEF789FF0A905F
:1046A000E1E74FF0010900230B9A52F80C2C72B18C
:1046B000E1B20BA8009302F016FC0BAAD5E90201A7
:1046C0000BF092F9009B10B9199904220A602CB9D9
:1046D00026B90B9A52F80C2C002A5ED0002B5CD124
:1046E000BAF1000F75D1BBF1000F00D07F421A9BC9
:1046F0001F6058E0DDF800A05746B9F1000FD2D195
:104700000A990198FCF790FE431CCCD0039B9F4272
:104710001AD8029B07FB08F71B1ABB4238BF4AF0A6
:10472000010A013407440698FCF783FB4FF0FF337E
:1047300016A906A80793FEF75DFF0028B1D006A8CA
:10474000FEF736FF0A90DBE74FF0010AEBE7DDF8F2
:10475000009085E76B6A9A42A5D00AAA019904984D
:10476000FCF7BAFEB8B1049B039AC01A3C284FEA82
:10477000A003C8BF063B97420AD8029A07FB08F776
:10478000D21ABA4238BF4AF0010A01341F4477E70F
:10479000DDF800A074E7034686E700231A9A136049
:1047A000199A04231360B9F1000F05D0199B199AC7
:1047B0001B6843F00203136006AB93E80300059BFC
:1047C00083E803000BA802F057F905980DB0BDE887
:1047D000F08FBBF1000F14BF4FF000436FF00043A8
:1047E000DCE700BFE408002070B588B006AC84E8C0
:1047F0000C00109B04930F9B03930E9B02930CAB36
:1048000005460E4693E803008DE80300284694E829
:104810000C003146FFF756FE284608B070BD2DE962
:10482000F04F8FB00E46DDE91A190AAC84E80C008F
:10483000CB68079013F0010F0DA838D1CDE9039094
:104840004FF0FF3302910D9318AB93E803008DE80E
:10485000030008AD94E80C0031462846FFF732FE0D
:1048600095E803000D9B012B84E803000CD81C9AEB
:1048700003F00103137094E80300079B83E803002F
:1048800018460FB0BDE8F08F1C9A01231370042363
:10489000C9F8003018A92046FEF799FE0028EAD092
:1048A000D9F8003043F00203C9F80030E3E76C3177
:1048B000FEF732F8026A8769B2FA82F8B7FA87F728
:1048C0004FF0010A83464FEA58187F0900265546E3
:1048D000B8F1000F01D0002F44D118A92046FEF7EF
:1048E00076FE00283FD12046FEF762FEB8F1000FA9
:1048F00006D1DBF81C1051F826502A1A55425541B2
:1049000025B927B128462FE00127E1E747B9DBF8B1
:10491000142052F82620131AD3F1000A4AEB030A96
:10492000BAF1000F04D1B8F1000F48D1002D3ED0EC
:1049300020460136FDF7D4FC8DB1DBF82010B142E2
:104940008CBF4FF000084FF00108BAF1000FDBD028
:10495000DBF81870B7428CBF00270127B8E74FF08B
:104960000108F2E7002085B9BAF1000F20D0DBF88A
:104970001830B3421CD1DEB11C9A012313700028F9
:1049800014BF022300238FE75046DBF82010B1420A
:10499000EAD1002EE8D01C9B00211970BAF1000F5B
:1049A000EDD0DBF81830B342E9D104237CE7284688
:1049B0001C9A002313700028F7D0062374E7002DFB
:1049C000E2D11C9B1D70F0E72DE9F04F8FB00DF187
:1049D00020091A9C069004F16C010BA889E80C00D0
:1049E000FDF79AFFE46804F04A040022402C834655
:1049F0000C924ED0082C0CBF10270A2718A9484645
:104A0000FEF7E5FD8046002876D14846FEF7D0FD4A
:104A1000DBF8BC200C9082420CBF012300230293E0
:104A200003D0DBF8C02082421BD19BF810201AB1C2
:104A3000DBF82820824214D0DBF82420824210D0F8
:104A40000898FCF7F6F94FF0FF3218A9484609928A
:104A5000FEF7D0FD0646002857D04846FEF7A8FDD1
:104A60000C90002635469BF810100C9A19B1DBF813
:104A70002810914244D0DBF82410914240D0DBF85A
:104A8000CC1091420DD136B10A2F0BD134B9254645
:104A90002AE00827B2E72CB3082F27D001350126DA
:104AA0000DE0EEB1DBF8C410914203D0DBF8C81082
:104AB00091422ED1E4B1102F30D100252E46089816
:104AC000FCF7B7F94FF0FF3218A948460992FEF7F4
:104AD00091FD00B34846FEF76BFD0C90002EC2D14D
:104AE000B0460DE0254601260827E8E73546D6E71B
:104AF000264625461027E2E7002302931D461E4660
:104B0000102F0CD1162303930AE04FF0010805463D
:104B1000F6E70126F4E74FF00108F1E701260397D5
:104B20006E4A0D929BF810201AB120210DA802F0B8
:104B300007F94FF6FF7ABAFBF7F304939BF8243199
:104B40000193002B53D00BF1CC0300240593A14615
:104B5000CDF81CA0B8F1000F22D19BF810A00C9A40
:104B6000BAF1000F75D0DBF828108A4271D1CDB1AF
:104B7000E9B20DA802F0B7F900250898FCF759F939
:104B80004FF0FF3218A908A80992FEF733FD00285C
:104B90005CD008A8FEF70CFD0C90DEE74FF0010892
:104BA0004FF0000A0D9A52F80C2C62B1E9B20DA830
:104BB00002F099F90DAADBE902010AF015FF10B91C
:104BC0001B9A042313602DB926B90D9B53F80C3C96
:104BD000002B64D0BAF1000F61D1B9F1000F7AD186
:104BE000029B0BB16442A4B21C9B1C805DE0DDF80B
:104BF00004904C46B8F1000FD2D10C990398FCF701
:104C000013FC431CCCD0049B9C421CD817FB04F41F
:104C1000A4B2AAEB00029442C8BF49F001090444BF
:104C2000A4B201350898FCF704F94FF0FF3318A936
:104C300008A80993FEF7DEFC0028AFD008A8FEF70D
:104C4000B7FC0C90D9E74FF00109EBE7DDF80480E1
:104C500080E7DBF824108A42A2D00CAA03990598B9
:104C6000FCF73AFCC8B1059BC01A049B3C284FEAEC
:104C7000A002C8BF063A9C420CD8079B17FB04F45D
:104C8000A4B2991A8C42C8BF49F001091444A4B2D5
:104C9000013572E7DDF804906FE7824682E7002372
:104CA0001C9A13801B9A04231360B8F1000F05D0DF
:104CB0001B9B1B9A1B6843F00203136008AB93E82D
:104CC0000300069B83E803000DA801F0D5FE0698BB
:104CD0000FB0BDE8F08F4FF6FF73E1E7E408002066
:104CE00070B588B006AC84E80C00109B04930F9B51
:104CF00003930E9B02930CAB05460E4693E803000C
:104D00008DE80300284694E80C003146FFF75CFE6E
:104D1000284608B070BD00002DE9F04F8DB00DF1B0
:104D2000180A189C059004F16C0109A88AE80C0087
:104D3000FDF7F2FDE76807F04A070023402F05461C
:104D40000A934BD0082F0CBF4FF010084FF00A0801
:104D500016A95046FEF73BFC8146002876D1504606
:104D6000FEF726FCD5F8BC300A9083420CBF012325
:104D70000023019303D0D5F8C030834218D12B7C97
:104D800013B1AB6A834213D06B6A834210D006988A
:104D9000FCF74FF84FF0FF3316A950460793FEF784
:104DA00029FC064600285BD05046FEF701FC0A901D
:104DB000002634462A7C0A9B12B1AA6A9A4249D03C
:104DC0006A6A9A4246D0D5F8CC209A4210D146B1B0
:104DD000B8F10A0F0DD147B93C462DE04FF0080855
:104DE000B6E73FB3B8F1080F29D0013401260EE031
:104DF000F6B1D5F8C4209A4203D0D5F8C8209A421B
:104E000032D1F7B1B8F1100F33D1002426460698FD
:104E1000FCF70FF84FF0FF3316A950460793FEF743
:104E2000E9FB18B35046FEF7C3FB0A90002EC1D130
:104E3000B1460FE03C4601264FF00808E7E734464C
:104E4000D4E73E463C464FF01008E0E700230193CC
:104E50001C461E46B8F1100F0CD1162302930BE02E
:104E60004FF001090446F5E70126F3E74FF0010989
:104E7000F0E70126CDF80880664B0B932B7C1BB125
:104E800020210BA801F05CFF95F824B14FF0FF330F
:104E9000B3FBF8F20392BBF1000F4DD005F1CC0348
:104EA00000270493BA46B9F1000F1FD12B7C0A9A50
:104EB000002B6ED0A96A8A426BD1C4B1E1B20BA8B3
:104EC00002F011F800240698FBF7B3FF4FF0FF3310
:104ED00016A906A80793FEF78DFB002857D006A851
:104EE000FEF766FB0A90E1E74FF0010900230B9AF9
:104EF00052F80C2C72B1E1B20BA8029301F0F3FF4F
:104F00000BAAD5E902010AF06FFD029B10B91999AD
:104F100004220A602CB926B90B9A52F80C2C002AEC
:104F200058D0002B56D1BAF1000F6FD1019B03B1BD
:104F30007F421A9B1F6053E0DA465F469B46B9F1F9
:104F4000000FD3D10A990298FCF76EFA431CCDD01A
:104F5000039B9F4218D807FB08F7C343BB4238BFE7
:104F60004AF0010A013407440698FBF762FF16A9CC
:104F700006A8CDF81CB0FEF73DFB0028B4D006A86B
:104F8000FEF716FB0A90DDE74FF0010AECE7D94681
:104F900089E76B6A9A42A9D00AAA02990498FCF799
:104FA0009BFAA8B1049B039AC01A3C284FEAA003BD
:104FB000C8BF063B974209D807FB08F7DA43BA4255
:104FC00038BF4AF0010A01341F447CE7DA467AE729
:104FD00003468CE700231A9A1360199A042313607E
:104FE000B9F1000F05D0199B199A1B6843F0020311
:104FF000136006AB93E80300059B83E803000BA84E
:1050000001F03AFD05980DB0BDE8F08F4FF0FF3389
:10501000E1E700BFE408002070B588B006AC84E882
:105020000C00109B04930F9B03930E9B02930CABFD
:1050300005460E4693E803008DE80300284694E8F1
:105040000C003146FFF768FE284608B070BD00002E
:105050002DE9F04F8DB00DF1180A189C059004F160
:105060006C0109A88AE80C00FDF756FCE76807F018
:105070004A070023402F05460A934BD0082F0CBF48
:105080004FF010084FF00A0816A95046FEF79FFA95
:105090008146002876D15046FEF78AFAD5F8BC3012
:1050A0000A9083420CBF01230023019303D0D5F85B
:1050B000C030834218D12B7C13B1AB6A834213D02A
:1050C0006B6A834210D00698FBF7B3FE4FF0FF33B4
:1050D00016A950460793FEF78DFA064600285BD0C6
:1050E0005046FEF765FA0A90002634462A7C0A9B51
:1050F00012B1AA6A9A4249D06A6A9A4246D0D5F851
:10510000CC209A4210D146B1B8F10A0F0DD147B95F
:105110003C462DE04FF00808B6E73FB3B8F1080F62
:1051200029D0013401260EE0F6B1D5F8C4209A4208
:1051300003D0D5F8C8209A4232D1F7B1B8F1100F98
:1051400033D1002426460698FBF773FE4FF0FF3359
:1051500016A950460793FEF74DFA18B35046FEF7CE
:1051600027FA0A90002EC1D1B1460FE03C46012635
:105170004FF00808E7E73446D4E73E463C464FF098
:105180001008E0E7002301931C461E46B8F1100FFB
:105190000CD1162302930BE04FF001090446F5E70A
:1051A0000126F3E74FF00109F0E70126CDF808806A
:1051B000664B0B932B7C1BB120210BA801F0C0FD8B
:1051C00095F824B14FF0FF33B3FBF8F20392BBF133
:1051D000000F4DD005F1CC0300270493BA46B9F176
:1051E000000F1FD12B7C0A9A002B6ED0A96A8A422D
:1051F0006BD1C4B1E1B20BA801F075FE0024069892
:10520000FBF717FE4FF0FF3316A906A80793FEF72A
:10521000F1F9002857D006A8FEF7CAF90A90E1E78D
:105220004FF0010900230B9A52F80C2C72B1E1B235
:105230000BA8029301F057FE0BAAD5E902010AF070
:10524000D3FB029B10B9199904220A602CB926B924
:105250000B9A52F80C2C002A58D0002B56D1BAF1D8
:10526000000F6FD1019B03B17F421A9B1F6053E077
:10527000DA465F469B46B9F1000FD3D10A990298EE
:10528000FCF7D2F8431CCDD0039B9F4218D807FBF4
:1052900008F7C343BB4238BF4AF0010A0134074450
:1052A0000698FBF7C6FD16A906A8CDF81CB0FEF7B8
:1052B000A1F90028B4D006A8FEF77AF90A90DDE734
:1052C0004FF0010AECE7D94689E76B6A9A42A9D008
:1052D0000AAA02990498FCF7FFF8A8B1049B039A64
:1052E000C01A3C284FEAA003C8BF063B974209D822
:1052F00007FB08F7DA43BA4238BF4AF0010A013423
:105300001F447CE7DA467AE703468CE700231A9AC3
:105310001360199A04231360B9F1000F05D0199B8B
:10532000199A1B6843F00203136006AB93E803006D
:10533000059B83E803000BA801F09EFB05980DB0C8
:10534000BDE8F08F4FF0FF33E1E700BFE408002035
:1053500070B588B006AC84E80C00109B04930F9BDA
:1053600003930E9B02930CAB05460E4693E8030095
:105370008DE80300284694E80C003146FFF768FEEC
:10538000284608B070BD2DE9F0418CB008AC149DE2
:10539000D5F80C8084E80C0028F04A0343F0080399
:1053A000EB600BAB0493159BCDE9025312AB0646A1
:1053B0008C4693E803008DE8030006AF94E80C00E8
:1053C00061463846FFF744FE97E80300169B0B9AA8
:1053D000C5F80C8084E8030086E8030030461A60B4
:1053E0000CB0BDE8F08100002DE9F04F99B00DF14F
:1053F000480A249C0F9004F16C0115A88AE80C005F
:10540000FDF78AFA00231693E36803F04A09B9F11D
:10541000400F05464ED0B9F1080F0CBF4FF01008F1
:105420004FF00A0822A95046FEF7D1F80746002897
:105430007CD15046FEF7BCF8D5F8BC3016908342BC
:105440000CBF01230023039303D0D5F8C03083425F
:1054500018D12B7C13B1AB6A834213D06B6A8342A1
:1054600010D01298FBF7E5FC4FF0FF3322A950460D
:105470001393FEF7BFF80646002861D05046FEF7AA
:1054800097F81690002634462A7C169B12B1AA6A19
:105490009A424FD06A6A9A424CD0D5F8CC209A42B0
:1054A00014D156B1B8F10A0F11D1B9F1000F0AD1D8
:1054B0004C4631E04FF00808B4E7B9F1000F29D0AD
:1054C000B8F1080F2BD00134012610E006B3D5F84F
:1054D000C4209A4203D0D5F8C8209A4233D1B9F1FA
:1054E000000F1ED0B8F1100F31D1002426461298BB
:1054F000FBF79FFC4FF0FF3322A950461393FEF7B2
:1055000079F810B35046FEF753F81690002EBBD131
:1055100037460FE04C4601264FF00808E7E73446CF
:10552000D2E74E464C464FF01008E0E700230393C5
:105530001C461E46B8F1100F0AD116230E9309E03F
:1055400001270446F6E70126F4E70127F2E70126E2
:10555000CDF83880A44B17932B7C1BB1202117A8C2
:1055600001F0EEFB039B002B3FD14FF0FF3308937C
:105570006FF0004309934246D317DDE90801CDE9F6
:10558000002314F057F895F82491CDE90A01B9F1F8
:10559000000F5DD005F1CC030C934FF0000A4FF0E3
:1055A000000B4FF0000837BB2B7C169A002B00F045
:1055B000A880A96A8A4240F0A480ECB1E1B217A8A1
:1055C00001F091FC00241298FBF733FC4FF0FF33FD
:1055D00022A912A81393FEF70DF8002800F08F807F
:1055E00012A8FDF7E5FF1690DEE7002308934FF0C1
:1055F0000043BFE701270023179A52F80C2C72B121
:10560000E1B217A8009301F06EFC17AAD5E90201D8
:105610000AF0EAF9009B10B9259904220A6034B90E
:105620002EB9179A52F80C2C002A00F0B680002BE5
:1056300040F0B380B8F1000F40F0CB80039B1BB16A
:10564000DAF1000A6BEB4B0B269BC3E900ABACE035
:10565000C8464FF0000A4FF0000B4FF0FF39002F03
:10566000C9D116990E98FBF7DFFE431CC3D0DDE9C4
:105670000A235B4508BF52453ED3009B03FB0BF159
:10568000019B0AFB0311009BA3FB0A23CDE9042322
:10569000059B0B4405930246C317CDE90623069AE2
:1056A000089B9B1A0C93079A099B63EB02030D93CB
:1056B000DDE90C23DDE904018B4208BF8242049B33
:1056C000069A38BF48F0010812EB030A059B079AB7
:1056D00004F1010442EB030B1298FBF7AAFB22A989
:1056E00012A8CDF84C90FDF785FF002882D012A8B3
:1056F000FDF75EFF1690B4E74FF00108ECE74F4668
:1057000051E76B6A9A423FF476AF16AA0E990C984D
:10571000FBF7E2FE00283ED00C9BC01A3C284FEA63
:10572000A002DDE90A01C8BF063A594508BF504545
:105730002FD3009B019903FB0BF30AFB0133009964
:10574000A1FB0A01CDE90401059919440591104610
:10575000D117CDE90601069A089B9B1A1093079A68
:10576000099B63EB02031193DDE91023DDE90401DA
:105770008B4208BF8242069B049A38BF48F001085A
:1057800013EB020A079B059A04F1010443EB020B99
:1057900019E7C84617E703462EE70022002326999B
:1057A000C1E90023259A042313602FB1259B259A74
:1057B0001B6843F00203136012AB93E803000F9BD6
:1057C00083E8030017A801F057F90F9819B0BDE856
:1057D000F08F039B23B94FF0FF326FF00043DEE7F9
:1057E00000224FF00043DAE7E408002070B588B0EB
:1057F00006AC84E80C00109B04930F9B03930E9B54
:1058000002930CAB05460E4693E803008DE80300B7
:10581000284694E80C003146FFF7E6FD284608B01C
:1058200070BD00002DE9F04F95B00DF1380A209CB5
:105830000B9004F16C0111A88AE80C00FDF76CF8DC
:1058400000231293E36803F04A08B8F1400F0546BD
:105850004ED0B8F1080F0CBF4FF010094FF00A09F5
:105860001EA95046FDF7B3FE074600287CD15046DE
:10587000FDF79EFED5F8BC30129083420CBF012389
:105880000023039303D0D5F8C030834218D12B7C7A
:1058900013B1AB6A834213D06B6A834210D00E9867
:1058A000FBF7C7FA4FF0FF331EA950460F93FDF7E1
:1058B000A1FE0646002861D05046FDF779FE129001
:1058C000002634462A7C129B12B1AA6A9A424FD013
:1058D0006A6A9A424CD0D5F8CC209A4214D156B17B
:1058E000B9F10A0F11D1B8F1000F0AD1444631E0E5
:1058F0004FF00809B4E7B8F1000F29D0B9F1080F4B
:105900002BD00134012610E006B3D5F8C4209A420A
:1059100003D0D5F8C8209A4233D1B8F1000F1ED079
:10592000B9F1100F31D1002426460E98FBF781FA09
:105930004FF0FF331EA950460F93FDF75BFE10B3E7
:105940005046FDF735FE1290002EBBD137460FE0D2
:10595000444601264FF00809E7E73446D2E74646B9
:1059600044464FF01009E0E7002303931C461E460F
:10597000B9F1100F0AD116230A9309E00127044652
:10598000F6E70126F4E70127F2E70126CDF8289093
:105990008F4B13932B7C1BB1202113A801F0D0F95E
:1059A0004A46D3174FF0FF304FF0FF31CDE90023C7
:1059B00013F040FE95F82491CDE90601B9F1000FEE
:1059C00057D005F1CC0308934FF0000A4FF0000BBD
:1059D0004FF0000807BB2B7C129A002B00F096803A
:1059E000A96A8A4240F09280BCB1E1B213A801F0EA
:1059F0007AFA00240E98FBF71CFA4FF0FF331EA929
:105A00000EA80F93FDF7F6FD00287DD00EA8FDF738
:105A1000CFFD1290DFE701270023139A52F80C2CD8
:105A200072B1E1B213A8009301F05DFA13AAD5E9AF
:105A3000020109F0D9FF009B10B9219904220A60E4
:105A400034B92EB9139A52F80C2C002A00F09E801B
:105A5000002B40F09B80B8F1000F40F0B380039B17
:105A60001BB1DAF1000A6BEB4B0B229BC3E900ABD5
:105A700094E0C8464FF0000A4FF0000B4FF0FF399A
:105A8000002FC9D112990A98FBF7CEFCB0F1FF3F65
:105A9000C2D0DDE906235B4508BF524531D3009BE8
:105AA00003FB0BF1019B0AFB0311009BA3FB0A23E1
:105AB0000B44C117CDE90401C14308910599C943BD
:105AC0000991DDE908019942049908BF904238BF65
:105AD00048F0010811EB020A059904F1010441EBB9
